:100000000C942A010C9452010C9452010C9452014C
:100010000C9452010C9452010C9452010C94520114
:100020000C9452010C949E030C9452010C945201B6
:100030000C9452010C9452010C9452010C945201F4
:100040000C944D030C9452010C948A020C9464029B
:100050000C9452010C9452010C9452010C945201D4
:100060000C9452010C94520150415F4D4158005084
:10007000415F484947480050415F4C4F570050414D
:100080005F4D494E0031362062697473003820623A
:100090006974730044697361626C6564006E5246F2
:1000A00032344C30312B006E524632344C303100F9
:1000B0003235304B42505300324D42505300314D97
:1000C0004250530000000008000201000003040732
:1000D000000000000000000053544154555309092A
:1000E000203D203078253032782052585F44523DF0
:1000F00025782054585F44533D2578204D41585F62
:1001000052543D25782052585F505F4E4F3D257820
:100110002054585F46554C4C3D25780D0A005041FF
:1001200020506F77657209203D2025530D0A007E0F
:100130000077006F006800435243204C656E67747F
:100140006809203D2025530D0A0094008D0085008C
:100150004D6F64656C0909203D2025530D0A00A7E9
:10016000009D0044617461205261746509203D2046
:1001700025530D0A00BE00B800B00044594E50444B
:100180002F4645415455524500434F4E4649470975
:100190000052465F53455455500052465F4348094C
:1001A00000454E5F52584144445200454E5F414124
:1001B000090052585F50575F50302D360054585F39
:1001C00041444452090052585F414444525F503206
:1001D0002D350052585F414444525F50302D31005C
:1001E0001112131415160A0B0C0D0E0F000000004F
:1001F000250028002B0000000000240027002A0012
:1002000004040404040404040202020202020303BC
:1002100003030303010204081020408001020408C4
:1002200010200102040810200D0A00253032780049
:1002300020307800255309203D000D0A0020307839
:100240002530327800255309203D000001020304C7
:100250000500A60B11241FBECFEFD8E0DEBFCDBF37
:1002600011E0A0E0B1E0E6E7F5E202C005900D92F2
:10027000AC36B107D9F722E0ACE6B1E001C01D927F
:10028000A139B207E1F711E0CAE2D1E004C0219739
:10029000FE010E948B12C932D107C9F70E94CB0818
:1002A0000C94B9120C940000089580E090E0089539
:1002B000FC01538D448D252F30E0842F90E0821B6C
:1002C000930B541710F0CF96089501970895FC01F1
:1002D000918D828D981761F0828DDF01A80FB11D7D
:1002E0005D968C91928D9F5F9F73928F90E00895A1
:1002F0008FEF9FEF0895FC01918D828D981731F05B
:10030000828DE80FF11D858D90E008958FEF9FEFAE
:100310000895FC01918D228D892F90E0805C9F4F84
:10032000821B91098F739927089588E891E00E94B4
:10033000890121E0892B09F420E0822F0895FC0136
:10034000848DDF01A80FB11DA35ABF4F2C91848D5E
:1003500090E001968F739927848FA689B7892C9393
:10036000A089B1898C9180648C93938D848D98132E
:1003700006C00288F389E02D80818F7D80830895F7
:10038000EF92FF920F931F93CF93DF93EC0181E0E5
:10039000888F9B8D8C8D981305C0E889F9898081A1
:1003A00085FD24C0F62E0B8D10E00F5F1F4F0F73DD
:1003B0001127E02E8C8DE8120CC00FB607FCFACF87
:1003C000E889F989808185FFF5CFCE010E949F01E0
:1003D000F1CF8B8DFE01E80FF11DE35AFF4FF08244
:1003E0000B8FEA89FB898081806207C0EE89FF89D3
:1003F0006083E889F98980818064808381E090E06E
:10040000DF91CF911F910F91FF90EF900895CF93BF
:10041000DF93EC01888D8823C9F0EA89FB8980810C
:1004200085FD05C0A889B9898C9186FD0FC00FB6DE
:1004300007FCF5CF808185FFF2CFA889B9898C911F
:1004400085FFEDCFCE010E949F01E7CFDF91CF91D5
:10045000089580E090E0892B29F00E949501811198
:100460000C94000008953FB7F89480917101909129
:100470007201A0917301B091740126B5A89B05C0CB
:100480002F3F19F00196A11DB11D3FBFBA2FA92F13
:10049000982F8827820F911DA11DB11DBC01CD0190
:1004A00042E0660F771F881F991F4A95D1F708957C
:1004B000CF93C82F682F88E891E00E94C0018C2F4D
:1004C000CC0F990BCF9108951F920F920FB60F92F8
:1004D00011242F933F934F935F936F937F938F9349
:1004E0009F93AF93BF93EF93FF9388E891E00E94AF
:1004F0009F01FF91EF91BF91AF919F918F917F915C
:100500006F915F914F913F912F910F900FBE0F9080
:100510001F9018951F920F920FB60F9211242F93D0
:100520008F939F93EF93FF93E0919801F09199013E
:100530008081E0919E01F0919F0182FD12C0908127
:100540008091A1018F5F8F732091A201821751F0DA
:10055000E091A101F0E0E857FE4F958F8093A10153
:1005600001C08081FF91EF919F918F912F910F900A
:100570000FBE0F901F90189590E0FC01EC53FF4FB9
:100580003491FC01EC5EFD4F2491FC01E050FE4FE4
:10059000E491EE2309F43BC0332339F1333091F079
:1005A00038F43130A9F0323001F584B58F7D12C0B6
:1005B000373091F03830A1F03430B9F480918000B8
:1005C0008F7D03C0809180008F77809380000DC065
:1005D00084B58F7784BD09C08091B0008F7703C048
:1005E0008091B0008F7D8093B000F0E0EE0FFF1F90
:1005F000E451FE4FA591B4918FB7F894EC9161113D
:1006000003C020952E2301C02E2B2C938FBF08955D
:100610008230910538F0880F991F880F991F059730
:100620000197F1F708958F929F92AF92BF92CF9268
:10063000DF92EF92FF926B017C010E9433024B012B
:100640005C01C114D104E104F104F1F00E94330211
:10065000DC01CB0188199909AA09BB09883E93409E
:10066000A105B10570F321E0C21AD108E108F10833
:1006700088EE880E83E0981EA11CB11CC114D10421
:10068000E104F10419F7DDCFFF90EF90DF90CF90F8
:10069000BF90AF909F908F9008951F920F920FB6CA
:1006A0000F9211242F933F938F939F93AF93BF93F8
:1006B0008091840190918501A0918601B09187017C
:1006C0003091700123E0230F2D3720F40196A11DF6
:1006D000B11D05C026E8230F0296A11DB11D209370
:1006E00070018093840190938501A0938601B0935B
:1006F00087018091710190917201A0917301B09175
:1007000074010196A11DB11D809371019093720136
:10071000A0937301B0937401BF91AF919F918F919A
:100720003F912F910F900FBE0F901F9018958EBD87
:1007300000000DB407FEFDCF8EB508951F920F92F5
:100740000FB60F9211242F933F934F935F936F93A4
:100750007F938F939F93AF93BF93EF93FF9380917A
:100760007C0190917D018093B20080917F019091F6
:100770008001A0918101B09182010196A11DB11D5E
:1007800080937F0190938001A0938101B0938201B7
:1007900040917F01509180016091810170918201AF
:1007A0008091780190917901A0917A01B0917B01BB
:1007B000481759076A077B07B0F080917E018111C5
:1007C00012C081E080937E0110927F01109280011F
:1007D0001092810110928201E0917601F0917701EF
:1007E000099510927E01FF91EF91BF91AF919F917A
:1007F0008F917F916F915F914F913F912F910F90CA
:100800000FBE0F901F90189560E070E088E592E0B1
:100810000C94FF0B8F929F92AF92BF92CF92DF9278
:10082000EF92FF920F931F93CF93DF93CDB7DEB775
:10083000A1970FB6F894DEBF0FBECDBF80916E01B9
:1008400090916F01019690936F0180936E01CC9708
:1008500009F06BC010926F0110926E0188EC8093CA
:100860007C0080917A00806880937A0064E170E077
:1008700080E090E00E94130380917A00806480936E
:100880007A0080917A0086FDFCCF0091780010916B
:1008900079000E940404B80180E090E00E943E10BC
:1008A0002EEA37E242EA53E40E94491126EF38E289
:1008B0004CE95FE30E94B6110E9428127F936F9368
:1008C0001F9281E08F938AE291E09F938F938FE252
:1008D00091E09F938F938E010F5F1F4F1F930F9394
:1008E0000E94961289E00E94EB050FB6F894DEBFD5
:1008F0000FBECDBF80FD0DC00E94F906F80101902A
:100900000020E9F76E2F601BC8010E94A6060E9416
:1009100070066AE371E088E891E00E94B60867E239
:1009200071E088E891E00E94B60861E082E00E94F0
:10093000BC0262E370E080E090E00E94130387E471
:1009400080937C0080917A00806480937A0080910B
:100950007A0086FDFCCF009178008091790010E04C
:10096000182B60E082E00E94BC028FEF93E0801BB6
:10097000910B67E070E00E946312072E000C880B59
:10098000990B0E9440106B017C0120E030E048ECA4
:1009900052E40E945E12181634F4C12CD12C28ECBB
:1009A000E22E22E4F22EC701B6010E9428126B014A
:1009B0007C0180916C0190916D01AC014350510913
:1009C000C416D5062CF003968C159D050CF08DC031
:1009D000D0926D01C0926C010E940404DF92CF920C
:1009E0001F9281E08F9380E591E09F938F938FE238
:1009F00091E09F938F938E010F5F1F4F1F930F9373
:100A00000E94961289E00E94EB050FB6F894DEBFB3
:100A10000FBECDBF80FD0DC00E94F906F801019008
:100A20000020E9F76E2F601BC8010E94A6060E94F5
:100A3000700665E571E088E891E00E94B6080D2C2B
:100A4000000CEE08FF08F7FE2BC0E0918801F09142
:100A500089010190F081E02D6DE288E891E009952F
:100A600022273327A9012C193D094E095F0919A234
:100A70008E010F5D1F4F9AE0C92ED12CE12CF12C75
:100A8000CA01B901A70196010E94F010605DF8014A
:100A900062938F01211531054105510589F71AC06F
:100AA000A701960119A28E010F5D1F4F8AE0882EC3
:100AB000912CA12CB12CCA01B901A50194010E946D
:100AC000F010605DF80162938F0121153105410539
:100AD000510589F7B80188E891E00E94B60867E2FD
:100AE00071E088E891E00E94B608A1960FB6F894EC
:100AF000DEBF0FBECDBFDF91CF911F910F91FF9051
:100B0000EF90DF90CF90BF90AF909F908F9008951F
:100B1000CF92DF92EF92FF920F931F93CF93DF93C9
:100B20006C017A018B01C0E0D0E0CE15DF0589F0C1
:100B3000D8016D918D01D601ED91FC910190F0816C
:100B4000E02DC6010995892B11F47E0102C0219682
:100B5000ECCFC701DF91CF911F910F91FF90EF90E4
:100B6000DF90CF9008950E949112CF93DF939CB5B0
:100B70009F7D9CBD9CB5937F9CBD9CB59C7F9CBD7F
:100B80009DB591609DBDCDE6D2E0682F8A810E941F
:100B9000BC028C899D89DF91CF910C94080381E080
:100BA0000C94B50580E00C94B505CF93DF931F92AC
:100BB000CDB7DEB789830E94D20589810E94970351
:100BC00089830E94CF0589810F90DF91CF9108958D
:100BD00081EE0C94D505CF93DF931F92CDB7DEB78E
:100BE00089830E94D20589818F710E9497038FEFBC
:100BF0000E94970389830E94CF0589810F90DF911E
:100C0000CF9108951F93CF93DF9300D0CDB7DEB778
:100C10006A8389830E94D20589818F7180620E94D4
:100C20009703182F6A81862F0E9497030E94CF0591
:100C3000812F0F900F90DF91CF911F910895EF9228
:100C4000FF920F931F93CF93DF9300D01F92CDB7E6
:100C5000DEB7162F4A837B8389830E94D205898160
:100C60008F7180620E949703082FE12E7B81F72EFF
:100C70004A81140F1E1531F0F70181917F010E9406
:100C80009703F8CF0E94CF05802F0F900F900F9001
:100C9000DF91CF911F910F91FF90EF9008952091D8
:100CA0006D0230916E0240916F02509170022417D4
:100CB000350721F0682F822F0C94BC02089580E044
:100CC0000E94EB0581FD0BC0682F626080E00E94EE
:100CD000020665E070E080E090E00C941303089554
:100CE0000E945F0680E00E94EB05682F616080E053
:100CF0000E94020660E787E00E94020681E00E94EF
:100D00004F0680917602882341F040917B0266E78E
:100D100072E08AE00E941F0612C082E00E94EB058A
:100D2000EBE4F2E0E49121E030E001C0220FEA952B
:100D3000EAF72095622F682382E00E9402068DE187
:100D40000E94EB0581FD0C94E8050895DF92EF9277
:100D5000FF920F931F93CF93DF931F92CDB7DEB710
:100D6000F82E20917402E62E261708F4E22E8091C8
:100D70007502811103C0D22EDE1801C0D12C9983D7
:100D80000E94D20580EA0E9497030F2D9981192FA6
:100D9000FE0CF01631F0F80181918F010E9497034B
:100DA000F8CFDD2029F080E00E949703DA94F9CF94
:100DB0000E94CF0581E00E944F068FEF0E94D5056B
:100DC0008073D9F380E00E944F0660E787E00E94BD
:100DD000020684FF04C00E94E80580E001C081E0B3
:100DE0000F90DF91CF911F910F91FF90EF90DF90C7
:100DF000089580E00E944F0680917D0290917E02CE
:100E00000E9408038DE10E94EB0581FF08C08091DC
:100E10007D0290917E020E9408030E94E80580E016
:100E20000E94EB05682F6E7F80E00E94020682E040
:100E30000E94EB05EBE4F2E0E49161E070E001C0B8
:100E4000660FEA95EAF7682B82E00C940206EF92AF
:100E5000FF920F931F93CF93DF931F92CDB7DEB70F
:100E6000E42E9F938F9385E492E09F938F93698301
:100E70000E944A0C6981E60E0F900F900F900F9020
:100E80000DE312E06E1591F0FF24F394F60E862F19
:100E90000E94EB051F928F931F930F930E944A0CA1
:100EA0000F900F900F900F906F2DECCF8AE392E090
:100EB0009F938F930E944A0C0F900F900F90DF9199
:100EC000CF911F910F91FF90EF9008952F923F9235
:100ED0004F925F926F927F928F929F92AF92BF924A
:100EE000CF92DF92EF92FF920F931F93CF93DF93F6
:100EF0001F92CDB7DEB7562E342E6DB67EB69F93B9
:100F00008F9384E392E09F938F930E944A0C350C59
:100F10000F900F900F900F9080E3C82E82E0D82E94
:100F20009BE2A92E92E0B92E531409F44EC08DB65F
:100F30009EB690917B02092F10E02DB73EB7201B83
:100F4000310B0FB6F8943EBF0FBE2DBFEDB7FEB705
:100F500031967F0122242394250C99830E94D20587
:100F6000852D8F710E949703270199819E0D9415FD
:100F700049F08FEF99830E949703F20181932F012B
:100F80009981F5CF0E94CF05DF92CF920E944A0C43
:100F90000E0D1F1D0F900F90015011090E151F050A
:100FA00068F0F80180811F928F93BF92AF920E94E8
:100FB0004A0C0F900F900F900F90EECF0FB6F89451
:100FC0009EBE0FBE8DBE522CAFCF88E292E09F93A3
:100FD0008F930E944A0C0F900F900FB6F8947EBE2C
:100FE0000FBE6DBE0F90DF91CF911F910F91FF90BB
:100FF000EF90DF90CF90BF90AF909F908F907F90B9
:101000006F905F904F903F902F9008950F931F9394
:10101000CF938C0186E00E94EB05C82FC77D02307C
:10102000110531F4C0628BE990E0A0E0B0E00DC0A2
:101030000130110529F085E590E0A0E0B0E005C0A1
:10104000C86081E490E0A0E0B0E080937D029093DE
:101050007E02A0937F02B09380026C2F86E00E94F4
:10106000020686E00E94EB0591E08C1390E0892F48
:10107000CF911F910F91089590E0FC01EC5EFD4F20
:101080002491FC01E050FE4F8491882399F090E078
:10109000880F991FFC01EA50FE4FA591B491FC0105
:1010A000E451FE4F859194918FB7F894EC91E22B27
:1010B000EC938FBF0895E8E8F1E0A089B18982E060
:1010C0008C93A485B5851C92A685B78580E18C9309
:1010D000108EA489B58986E08C93A289B3898C91FE
:1010E00080618C93A289B3898C9188608C93A2894A
:1010F000B3898C9180688C930288F389E02D80817C
:101100008F7D80830895CF92DF92EF92FF920F93AD
:101110001F932FB7F894C0908401D0908501E09080
:101120008601F09087012FBFDC01CB018C0D9D1D46
:10113000AE1DBF1D4FB7F894009184011091850139
:1011400020918601309187014FBF0C151D052E059A
:101150003F0528F080179107A207B30758F71F91A2
:101160000F91FF90EF90DF90CF900895611571057A
:1011700079F0FB0101900020E9F73197AF01461BA0
:10118000570BDC01ED91FC910280F381E02D099475
:1011900080E090E00895CF93DF93CDB7DEB76097FE
:1011A0000FB6F894DEBF0FBECDBF789484B58260D1
:1011B00084BD84B5816084BD85B5826085BD85B5FB
:1011C000816085BD80916E00816080936E00109279
:1011D00081008091810082608093810080918100F4
:1011E0008160809381008091800081608093800085
:1011F0008091B10084608093B1008091B0008160E3
:101200008093B00080917A00846080937A0080910E
:101210007A00826080937A0080917A008160809366
:101220007A0080917A00806880937A001092C100E1
:101230001092690210926A0210926B0210926C0274
:1012400010922702109228021092290210922A026C
:1012500068EB7BE080E090E00E94830888E891E002
:1012600090936802809367020E945B082FB7F894FE
:101270008091840190918501A0918601B0918701B0
:101280002FBF8093270290932802A0932902B09346
:101290002A0268E171E080916702909168020E94E1
:1012A000B6086AE070E080E090E00E94830811E0F8
:1012B00010933B0282E00E943C0860E082E00E94C2
:1012C000BC0268EE73E080E090E00E9413030E948D
:1012D0005B08109383010E94040480916D02909139
:1012E0006E0220916F02309170028217930711F005
:1012F0000E943C0880916F029091700220916D02D3
:1013000030916E022817390711F00E943C081FB770
:10131000F89480917501811124C0EAE0F2E0849193
:10132000EEE1F2E09491E82FF0E0EE0FFF1FEA50BB
:10133000FE4FA591B491EC91E92321F461E08AE09C
:101340000E94BC028AE00E943C088CB580618CBD82
:101350008CB580648CBD8DE00E943C088BE00E94BF
:101360003C08809175018F5F809375011FBF80E0FD
:101370000E944F0681E00E94B50565E070E080E0C4
:1013800090E00E9413036CE080E00E9402066FE58B
:1013900084E00E94020682E090E00E940608882312
:1013A00019F081E08093730286E00E94EB0580E0F3
:1013B00090E00E9406080E94D20580E50E949703F3
:1013C00083E70E9497030E94CF0560E08DE10E94B1
:1013D000020660E08CE10E9402061092750260E74E
:1013E00087E00E9402066CE485E00E94020682EE1D
:1013F0000E94D5050E94E8050E945F0680E00E94D9
:10140000EB05682F6E7F80E00E9402068DE10E944E
:10141000EB05682F64608DE10E9402068CE10E945A
:10142000EB05682F6F638CE10E94020611E01093B8
:10143000750281E090E00E94060886E00E94EB05BC
:10144000682F676086E00E9402066AE285E00E94DB
:10145000020663E184E00E940206198780EF8A8712
:101460008B878C878D871E861F86188A40917B020A
:10147000BE01675F7F4F8AE00E941F0640917B029A
:10148000BE01675F7F4F80E10E941F06609174027A
:1014900081E10E94020688EE89838A838B838C8394
:1014A0008D831E821F821886E7EEF1E084914091C1
:1014B0007B02BE016F5F7F4F0E941F06E1EEF1E0ED
:1014C0008491609174020E94020682E00E94EB0502
:1014D000ECE4F2E0E49161E070E001C0660FEA95AF
:1014E000EAF7682B82E00E9402066FE381E00E9427
:1014F00002060E9470068FEF0E94D505282F30E06B
:10150000982F91701F929F933595279527703327B9
:101510003F932F9384FB992790F91F929F9385FB0C
:10152000992790F91F929F9386FB992790F91F9214
:101530009F931F928F9388ED90E09F938F930E94CB
:101540004A0C42E06AE083ED91E00E94660744E0C5
:101550006CE086EC91E00E94270741E060E18DEBB2
:1015600091E00E94660746E061E182EB91E00E9413
:10157000270741E061E08BEA91E00E94270741E004
:1015800062E081EA91E00E94270741E065E08AE994
:1015900091E00E94270741E066E081E991E00E9426
:1015A000270741E060E089E891E00E94270742E0D8
:1015B0006CE18BE791E00E94270786E00E94EB0533
:1015C00088720FB6F894DEBF0FBECDBF803241F0F7
:1015D00021E090E0883009F020E0E22FF92F02C0EE
:1015E000E2E0F0E0EE0FFF1FEB58FE4F8591949183
:1015F0009F938F9383E691E09F938F930E944A0C71
:10160000E0917302F0E0EE0FFF1FE15AFE4F85916B
:1016100094919F938F9380E591E09F938F930E9485
:101620004A0C80E00E94EB05182F81E00E94EB0538
:101630000FB6F894DEBF0FBECDBF13FD02C08823E6
:1016400029F012FD06C0E1E0F0E005C0E0E0F0E0C6
:1016500002C0E2E0F0E0EE0FFF1FE65BFE4F859177
:1016600094919F938F9387E391E09F938F930E9430
:101670004A0C86E00E94EB058670E82FF0E0E15D01
:10168000FE4F859194919F938F938EE191E09F936C
:101690008F930E944A0C809170008E7F809370001F
:1016A0008091B0008C7F8093B0008091B100877FE3
:1016B0008093B1008091B6008F7D8093B6008091B9
:1016C00070008D7F809370008091B1008460809362
:1016D000B1008091B1008C7F8093B10086E090E0F2
:1016E00090937D0180937C0188EE93E0A0E0B0E0D0
:1016F0008093780190937901A0937A01B0937B0154
:101700008AE094E0909377018093760110927F01B4
:1017100010928001109281011092820110927E013C
:1017200080917C0190917D018093B2008091700046
:101730008160809370000FB6F894DEBF0FBECDBFFE
:1017400011E0109383010E942902FBCFE8E8F1E049
:101750001382128288EE93E0A0E0B0E08483958348
:10176000A683B7838AE091E09183808385EC90E043
:101770009587848784EC90E09787868780EC90E05B
:10178000918B808B81EC90E0938B828B82EC90E04C
:10179000958B848B86EC90E0978B868B118E128EC6
:1017A000138E148EE5E2F2E01682178210861186FF
:1017B000128613861486158616861786108A118A55
:1017C000128A138A148A158AEDE6F2E086E090E028
:1017D0009183808387E090E093838283168280E206
:1017E0008783108685E0868785E090E0A0E0B0E002
:1017F000848B958BA68BB78B11860C9404040F9366
:101800001F93CF93DF93009731F46115710519F49D
:1018100080E090E03AC08B01EC016EE070E081E086
:1018200090E00E94420EFC01892B91F380E88383B3
:101830000115110571F01387028781E88383809178
:10184000870290918802892B21F4F0938802E0931B
:1018500087022097C9F0D187C08783818260838304
:101860008091890290918A02892B71F4F0938A0207
:10187000E093890280918B0290918C02892B21F454
:10188000F0938C02E0938B02CF01DF91CF911F91F7
:101890000F910895A0E0B0E0E0E5FCE00C94201189
:1018A000AE01495F5F4FDA016D917D91AD0107E8AF
:1018B00012E0F80182819381DC0113962C91139739
:1018C000286013962C930E94700CD8011296ED910B
:1018D000FC9113972381277F2383E4E00C943C1130
:1018E000ACE0B0E0E6E7FCE00C9412117C016B0187
:1018F0008A01FC0117821682838181FFBDC1CE015E
:1019000001964C01F7019381F60193FD859193FFB8
:1019100081916F01882309F4ABC1853239F493FDBD
:10192000859193FF81916F01853229F4B70190E091
:101930000E94A80FE7CF512C312C20E02032A0F4D8
:101940008B3269F030F4803259F0833269F42061CF
:101950002CC08D3239F0803339F4216026C02260EA
:10196000246023C0286021C027FD27C030ED380F38
:101970003A3078F426FF06C0FAE05F9E300D11245D
:10198000532E13C08AE0389E300D1124332E20626E
:101990000CC08E3221F426FD6BC1206406C08C364B
:1019A00011F4206802C0883641F4F60193FD859158
:1019B00093FF81916F018111C1CF982F9F7D955425
:1019C000933028F40C5F1F4FFFE3F9830DC083367B
:1019D00031F0833771F0833509F05BC022C0F80124
:1019E000808189830E5F1F4F44244394512C5401FE
:1019F00015C03801F2E06F0E711CF801A080B180B3
:101A000026FF03C0652D70E002C06FEF7FEFC501B8
:101A10002C870E949D0F2C0183012C852F77222E6D
:101A200017C03801F2E06F0E711CF801A080B18080
:101A300026FF03C0652D70E002C06FEF7FEFC50188
:101A40002C870E948B0F2C012C852068222E83016D
:101A500023FC1BC0832D90E048165906B0F4B70153
:101A600080E290E00E94A80F3A94F4CFF50127FCA1
:101A7000859127FE81915F01B70190E00E94A80F38
:101A800031103A94F1E04F1A51084114510471F7A2
:101A9000E5C0843611F0893639F5F80127FF07C013
:101AA00060817181828193810C5F1F4F08C06081CA
:101AB0007181072E000C880B990B0E5F1F4F2F763C
:101AC000722E97FF09C090958095709561957F4F14
:101AD0008F4F9F4F2068722E2AE030E0A4010E94B1
:101AE000E00FA82EA81844C0853729F42F7EB22E07
:101AF0002AE030E025C0F22FF97FBF2E8F36C1F0EB
:101B000018F4883579F0B4C0803719F0883721F09F
:101B1000AFC02F2F2061B22EB4FE0DC08B2D84607C
:101B2000B82E09C024FF0AC09F2F9660B92E06C0A8
:101B300028E030E005C020E130E002C020E132E0E2
:101B4000F801B7FE07C060817181828193810C5FCB
:101B50001F4F06C06081718180E090E00E5F1F4FD3
:101B6000A4010E94E00FA82EA818FB2DFF777F2E5E
:101B700076FE0BC0372D3E7FA51450F474FE0AC0CC
:101B800072FC08C0372D3E7E05C0BA2C372D03C02D
:101B9000BA2C01C0B52C34FF0DC0FE01EA0DF11DB9
:101BA0008081803311F4397E09C032FF06C0B394BE
:101BB000B39404C0832F867809F0B39433FD13C027
:101BC00030FF06C05A2CB31418F4530C5B18B32C16
:101BD000B31468F4B70180E290E03C870E94A80F3C
:101BE000B3943C85F5CFB31410F43B1801C0312CED
:101BF00034FF12C0B70180E390E03C870E94A80F39
:101C00003C8532FF17C031FD03C088E790E002C079
:101C100088E590E0B7010CC0832F867859F031FF3A
:101C200002C08BE201C080E237FD8DE2B70190E097
:101C30000E94A80FA51438F4B70180E390E00E9439
:101C4000A80F5A94F7CFAA94F401EA0DF11D8081F0
:101C5000B70190E00E94A80FA110F5CF332009F43E
:101C600051CEB70180E290E00E94A80F3A94F6CFDF
:101C7000F7018681978102C08FEF9FEF2C96E2E1FA
:101C80000C942E110F931F93CF93DF93869F8001A7
:101C9000879F100D969F100D1124C8010E945E0EA3
:101CA000EC01009729F0A80160E070E00E94960F17
:101CB000CE01DF91CF911F910F910895CF93DF93C4
:101CC0008230910510F482E090E0E0918F02F09173
:101CD000900220E030E0C0E0D0E0309711F1408188
:101CE000518148175907C0F04817590761F482819C
:101CF0009381209719F09B838A832BC09093900245
:101D000080938F0226C02115310519F04217530721
:101D100018F49A01BE01DF01EF010280F381E02D8A
:101D2000DCCF2115310509F1281B390B2430310591
:101D300090F412968D919C9113976115710521F085
:101D4000FB019383828304C09093900280938F025F
:101D5000FD01329644C0FD01E20FF31F8193919380
:101D6000225031092D933C933AC020918D0230913D
:101D70008E02232B41F42091020130910301309314
:101D80008E0220938D0220910001309101012115D6
:101D9000310541F42DB73EB7409104015091050142
:101DA000241B350BE0918D02F0918E02E217F307B0
:101DB000A0F42E1B3F0B2817390778F0AC014E5FBB
:101DC0005F4F2417350748F04E0F5F1F50938E0268
:101DD00040938D028193919302C0E0E0F0E0CF0147
:101DE000DF91CF9108950F931F93CF93DF930097C7
:101DF00009F48CC0FC0132971382128200918F0289
:101E0000109190020115110581F420813181820F1A
:101E1000931F20918D0230918E022817390779F592
:101E2000F0938E02E0938D0271C0D80140E050E043
:101E3000AE17BF0750F412962D913C911397AD0148
:101E40002115310509F1D901F3CF9D01DA01338361
:101E5000228360817181860F971F8217930769F42F
:101E6000EC0128813981260F371F2E5F3F4F3183C8
:101E700020838A819B8193838283452B29F4F0936D
:101E80009002E0938F0242C01396FC93EE93129758
:101E9000ED01499159919E01240F351FE217F30777
:101EA00071F480819181840F951F029611969C9305
:101EB0008E938281938113969C938E931297E0E088
:101EC000F0E0D80112968D919C911397009719F02C
:101ED000F8018C01F6CF8D919C9198012E5F3F4FB8
:101EE000820F931F20918D0230918E02281739079F
:101EF00069F4309729F41092900210928F0202C078
:101F00001382128210938E0200938D02DF91CF9183
:101F10001F910F910895FC010590615070400110D0
:101F2000D8F7809590958E0F9F1F0895DC0101C012
:101F30006D9341505040E0F70895FC0161507040AE
:101F400001900110D8F7809590958E0F9F1F0895EE
:101F50000F931F93CF93DF93FB01238121FD03C0D8
:101F60008FEF9FEF28C022FF16C046815781248142
:101F700035814217530744F4A081B1819D012F5F41
:101F80003F4F318320838C93268137812F5F3F4FD2
:101F90003783268310C0EB01092F182F0084F185A9
:101FA000E02D0995892BE1F68E819F8101969F8313
:101FB0008E83812F902FDF91CF911F910F910895E4
:101FC000FA01AA27283051F1203181F1E8946F936A
:101FD0006E7F6E5F7F4F8F4F9F4FAF4FB1E03ED010
:101FE000B4E03CD0670F781F891F9A1FA11D680FAE
:101FF000791F8A1F911DA11D6A0F711D811D911DE1
:10200000A11D20D009F468943F912AE0269F112455
:102010003019305D3193DEF6CF010895462F4770B9
:10202000405D4193B3E00FD0C9F7F6CF462F4F7014
:10203000405D4A3318F0495D31FD4052419302D072
:10204000A9F7EACFB4E0A695979587957795679518
:10205000BA95C9F700976105710508959B01AC0118
:102060000A2E06945795479537952795BA95C9F73F
:10207000620F731F841F951FA01D0895E89409C067
:1020800097FB3EF490958095709561957F4F8F4FAB
:102090009F4F9923A9F0F92F96E9BB279395F695C1
:1020A000879577956795B795F111F8CFFAF4BB0F3F
:1020B00011F460FF1BC06F5F7F4F8F4F9F4F16C0A3
:1020C000882311F096E911C0772321F09EE8872F2D
:1020D000762F05C0662371F096E8862F70E060E0E9
:1020E0002AF09A95660F771F881FDAF7880F969562
:1020F000879597F90895990F0008550FAA0BE0E806
:10210000FEEF16161706E807F907C0F012161306B9
:10211000E407F50798F0621B730B840B950B39F4F9
:102120000A2661F0232B242B252B21F408950A265F
:1021300009F4A140A6958FEF811D811D089597F99F
:102140009F6780E870E060E008959FEF80EC08955D
:1021500000240A9416161706180609060895002486
:102160000A9412161306140605060895092E039400
:10217000000C11F4882352F0BB0F40F4BF2B11F474
:1021800060FF04C06F5F7F4F8F4F9F4F089557FDD3
:102190009058440F551F59F05F3F71F04795880FD5
:1021A00097FB991F61F09F3F79F08795089512166C
:1021B00013061406551FF2CF4695F1DF08C0161618
:1021C00017061806991FF1CF8695710561050894C9
:1021D0000895E894BB2766277727CB0197F90895E0
:1021E000A1E21A2EAA1BBB1BFD010DC0AA1FBB1F1B
:1021F000EE1FFF1FA217B307E407F50720F0A21B8D
:10220000B30BE40BF50B661F771F881F991F1A94F9
:1022100069F760957095809590959B01AC01BD0123
:10222000CF0108952F923F924F925F926F927F92CB
:102230008F929F92AF92BF92CF92DF92EF92FF92D6
:102240000F931F93CF93DF93CDB7DEB7CA1BDB0B82
:102250000FB6F894DEBF0FBECDBF09942A88398827
:1022600048885F846E847D848C849B84AA84B9842E
:10227000C884DF80EE80FD800C811B81AA81B9813A
:10228000CE0FD11D0FB6F894DEBF0FBECDBFED014E
:1022900008955058BB27AA270E9461110C94B610CC
:1022A0000E94A81038F00E94AF1020F039F49F3F30
:1022B00019F426F40C94A5100EF4E095E7FB0C94A9
:1022C0009F10E92F0E94C71058F3BA1762077307CF
:1022D0008407950720F079F4A6F50C94E9100EF424
:1022E000E0950B2EBA2FA02D0B01B90190010C0126
:1022F000CA01A0011124FF27591B99F0593F50F43E
:10230000503E68F11A16F040A22F232F342F442795
:10231000585FF3CF469537952795A795F04053958D
:10232000C9F77EF41F16BA0B620B730B840BBAF05D
:102330009150A1F0FF0FBB1F661F771F881FC2F7C8
:102340000EC0BA0F621F731F841F48F487957795DC
:102350006795B795F7959E3F08F0B0CF9395880F96
:1023600008F09927EE0F9795879508950E94CA1156
:102370000C94B6100E94AF1058F00E94A81040F0C4
:1023800029F45F3F29F00C949F1051110C94EA102E
:102390000C94A5100E94C71068F39923B1F355233C
:1023A00091F3951B550BBB27AA2762177307840768
:1023B00038F09F5F5F4F220F331F441FAA1FA9F3FE
:1023C00035D00E2E3AF0E0E832D091505040E695EC
:1023D000001CCAF72BD0FE2F29D0660F771F881F4D
:1023E000BB1F261737074807AB07B0E809F0BB0B40
:1023F000802DBF01FF2793585F4F3AF09E3F510554
:1024000078F00C949F100C94EA105F3FE4F3983E30
:10241000D4F3869577956795B795F7959F5FC9F73C
:10242000880F911D9695879597F90895E1E0660FBD
:10243000771F881FBB1F621773078407BA0720F036
:10244000621B730B840BBA0BEE1F88F7E09508959F
:102450000E942F126894B1110C94EA1008950E9402
:10246000CF1088F09F5798F0B92F9927B751B0F047
:10247000E1F0660F771F881F991F1AF0BA95C9F708
:1024800014C0B13091F00E94E910B1E008950C94AD
:10249000E910672F782F8827B85F39F0B93FCCF360
:1024A000869577956795B395D9F73EF49095809585
:1024B000709561957F4F8F4F9F4F08950E947B10BD
:1024C00008F48FEF089597FB072E16F4009407D0B9
:1024D00077FD09D00E94771207FC05D03EF4909555
:1024E00081959F4F0895709561957F4F0895AA1B20
:1024F000BB1B51E107C0AA1FBB1FA617B70710F0EF
:10250000A61BB70B881F991F5A95A9F78095909520
:10251000BC01CD010895EE0FFF1F0590F491E02D51
:10252000099481E090E0F8940C94B912AEE0B0E028
:10253000ECE9F2E10C9420110D891E8986E08C8370
:102540001A8309838FEF9FE79E838D83AE01475ED9
:102550005F4F6F89788DCE0101960E94700C2F819C
:102560003885F801E20FF31F10822E96E4E00C94F8
:062570003C11F894FFCFBE
:1025760000009102800000000000C001880558019B
:102586000702890167017B01564D4450565F317C35
:10259600315F564D4450560D0A0074627264002530
:1025A600732F253032643B256400436F72652074B7
:1025B600656D70657261747572652073656E640011
:1025C600687967730056616C7565206F6620736560
:0C25D6006E736F722073656E64203A0013
:107800000C94343C0C94513C0C94513C0C94513CE1
:107810000C94513C0C94513C0C94513C0C94513CB4
:107820000C94513C0C94513C0C94513C0C94513CA4
:107830000C94513C0C94513C0C94513C0C94513C94
:107840000C94513C0C94513C0C94513C0C94513C84
:107850000C94513C0C94513C0C94513C0C94513C74
:107860000C94513C0C94513C11241FBECFEFD8E036
:10787000DEBFCDBF11E0A0E0B1E0ECE9FFE702C060
:1078800005900D92A230B107D9F712E0A2E0B1E065
:1078900001C01D92AD30B107E1F70E942D3D0C945F
:1078A000CC3F0C94003C982F959595959595959582
:1078B000905D8F708A307CF0282F295A8091C0000B
:1078C00085FFFCCF9093C6008091C00085FFFCCF60
:1078D0002093C6000895282F205DF0CF982F809127
:1078E000C00085FFFCCF9093C6000895EF92FF92F1
:1078F0000F931F93EE24FF2487018091C00087FD22
:1079000017C00894E11CF11C011D111D81E4E8164B
:1079100082E4F8068FE0080780E0180770F3E09132
:107920000401F091050109958091C00087FFE9CF1E
:107930008091C6001F910F91FF90EF9008950E94D3
:10794000763C982F8091C00085FFFCCF9093C600B5
:1079500091362CF490330CF09053892F089597555D
:10796000892F08951F930E949F3C182F0E949F3CCF
:107970001295107F810F1F9108951F93182F882350
:1079800021F00E94763C1150E1F71F9108951F935A
:10799000182F0E94763C803249F0809103018F5F5E
:1079A000809303018530C1F01F9108958091C0003C
:1079B00085FFFCCF84E18093C6008091C00085FFE5
:1079C000FCCF1093C6008091C00085FFFCCF80E102
:1079D0008093C6001F910895E0910401F091050184
:1079E00009951F9108950E94763C803241F0809164
:1079F00003018F5F80930301853081F008958091AA
:107A0000C00085FFFCCF84E18093C6008091C00058
:107A100085FFFCCF80E18093C6000895E0910401CA
:107A2000F09105010995089540E951E08823A1F0FE
:107A30002D9A28EE33E0FA013197F1F721503040CA
:107A4000D1F72D9828EE33E0FA013197F1F7215064
:107A50003040D1F7815061F708953F924F925F9285
:107A60006F927F928F929F92AF92BF92CF92DF924E
:107A7000EF92FF920F931F93CF93DF93000080E16B
:107A80008093C4001092C50088E18093C10086E015
:107A90008093C2005098589A259A81E00E94143D24
:107AA00024E1F22E9EE1E92E85E9D82E0FE0C02ECA
:107AB00010E1B12EAA24A394B1E49B2EA6E58A2E50
:107AC000F2E57F2EE0E26E2E79E4572E63E5462E36
:107AD00050E5352E0E94763C8033B1F18133B9F107
:107AE000803409F46FC0813409F476C0823409F41B
:107AF00085C0853409F488C0803531F1823521F1A3
:107B0000813511F1853509F485C0863509F48DC0BC
:107B1000843609F496C0843709F403C1853709F423
:107B200072C1863709F466C0809103018F5F80932C
:107B30000301853079F6E0910401F0910501099582
:107B40000E94763C803351F60E94F33CC3CF0E94E2
:107B5000763C803249F78091C00085FFFCCFF092DF
:107B6000C6008091C00085FFFCCF9092C600809136
:107B7000C00085FFFCCF8092C6008091C00085FFC9
:107B8000FCCF7092C6008091C00085FFFCCF609250
:107B9000C6008091C00085FFFCCF5092C600809146
:107BA000C00085FFFCCF4092C6008091C00085FFD9
:107BB000FCCF3092C6008091C00085FFFCCFB09210
:107BC000C60088CF0E94763C863808F4BDCF0E945C
:107BD000763C0E94F33C7ECF0E94763C803809F4CC
:107BE0009CC0813809F40BC1823809F43CC1883942
:107BF00009F48FC080E00E94C73C6CCF84E10E94F2
:107C0000BD3C0E94F33C66CF85E00E94BD3C0E94D3
:107C1000F33C60CF0E94763C809306010E94763C44
:107C2000809307010E94F33C55CF0E94763C80333D
:107C300009F41DC183E00E94BD3C80E00E94C73C66
:107C400049CF0E94763C809309020E94763C809343
:107C5000080280910C028E7F80930C020E94763C79
:107C6000853409F415C18091080290910902892B8D
:107C700089F000E010E00E94763CF801E85FFE4FDA
:107C800080830F5F1F4F80910802909109020817AF
:107C9000190788F30E94763C803209F045CF809125
:107CA0000C0280FF01C16091060170910701660F0F
:107CB000771F7093070160930601A0910802B091AD
:107CC00009021097C9F0E8E0F1E09B01AD014E0F09
:107CD0005F1FF999FECF32BD21BD819180BDFA9A17
:107CE000F99A2F5F3F4FE417F50799F76A0F7B1F4B
:107CF00070930701609306018091C00085FFFCCF5F
:107D0000F092C6008091C00085FFFCCFB092C60003
:107D1000E1CE83E00E94C73CDDCE82E00E94C73CFA
:107D2000D9CE0E94763C809309020E94763C8093D3
:107D300008028091060190910701880F991F909386
:107D40000701809306010E94763C853409F4A6C0A1
:107D500080910C028E7F80930C020E94763C8032D0
:107D600009F0B8CE8091C00085FFFCCFF092C6002C
:107D7000609108027091090261157105B9F140E046
:107D800050E080910C02A82FA170B82FB27011C0E2
:107D9000BB2309F45CC0E0910601F0910701319624
:107DA000F0930701E09306014F5F5F4F46175707B7
:107DB000E8F4AA2369F3F999FECF209106013091E6
:107DC000070132BD21BDF89A90B58091C00085FFB2
:107DD000FCCF9093C6002F5F3F4F30930701209355
:107DE00006014F5F5F4F4617570718F38091C00099
:107DF00085FDE5CE8091C00085FFF8CFE0CE81E023
:107E00000E94C73C67CE0E94763C803209F08CCE3F
:107E10008091C00085FFFCCFF092C6008091C00029
:107E200085FFFCCFE092C6008091C00085FFFCCFAB
:107E3000D092C6008091C00085FFFCCFC092C600E2
:107E40008091C00085FFFCCFB092C60043CEE09188
:107E50000601F091070194918091C00085FFFCCF4D
:107E60009093C6009CCF80E10E94C73C33CE0E9415
:107E7000763C0E94763C182F0E94763C112309F430
:107E800083C0113009F484C08FE00E94C73C22CE29
:107E900080910C02816080930C02E5CE80910C02EF
:107EA000816080930C0259CF809107018823880F4D
:107EB000880B8A2180930B02809106019091070123
:107EC000880F991F90930701809306018091080203
:107ED00080FF09C080910802909109020196909359
:107EE000090280930802F894F999FECF1127E091D6
:107EF0000601F0910701C8E0D1E08091080290915D
:107F00000902103091F40091570001700130D9F34B
:107F100003E000935700E89500915700017001308D
:107F2000D9F301E100935700E89509901990009169
:107F3000570001700130D9F301E000935700E89534
:107F40001395103498F011270091570001700130FB
:107F5000D9F305E000935700E895009157000170B0
:107F60000130D9F301E100935700E895329602976A
:107F700009F0C7CF103011F00296E5CF112480919F
:107F8000C00085FFB9CEBCCE8EE10E94C73CA2CD19
:0C7F900085E90E94C73C9ECDF894FFCF0D
:027F9C00800063
:040000030000780081
:00000001FF