:100000000C942A010C9452010C9452010C9452014C
:100010000C9452010C9452010C9452010C94520114
:100020000C9452010C9429040C9452010C9452012A
:100030000C9452010C9452010C9452010C945201F4
:100040000C94D8030C9452010C9415030C94EF02F9
:100050000C9452010C9452010C9452010C945201D4
:100060000C9452010C94520150415F4D4158005084
:10007000415F484947480050415F4C4F570050414D
:100080005F4D494E0031362062697473003820623A
:100090006974730044697361626C6564006E5246F2
:1000A00032344C30312B006E524632344C303100F9
:1000B0003235304B42505300324D42505300314D97
:1000C0004250530000000008000201000003040732
:1000D000000000000000000053544154555309092A
:1000E000203D203078253032782052585F44523DF0
:1000F00025782054585F44533D2578204D41585F62
:1001000052543D25782052585F505F4E4F3D257820
:100110002054585F46554C4C3D25780D0A005041FF
:1001200020506F77657209203D2025530D0A007E0F
:100130000077006F006800435243204C656E67747F
:100140006809203D2025530D0A0094008D0085008C
:100150004D6F64656C0909203D2025530D0A00A7E9
:10016000009D0044617461205261746509203D2046
:1001700025530D0A00BE00B800B00044594E50444B
:100180002F4645415455524500434F4E4649470975
:100190000052465F53455455500052465F4348094C
:1001A00000454E5F52584144445200454E5F414124
:1001B000090052585F50575F50302D360054585F39
:1001C00041444452090052585F414444525F503206
:1001D0002D350052585F414444525F50302D31005C
:1001E0001112131415160A0B0C0D0E0F000000004F
:1001F000250028002B0000000000240027002A0012
:1002000004040404040404040202020202020303BC
:1002100003030303010204081020408001020408C4
:1002200010200102040810200D0A00253032780049
:1002300020307800255309203D000D0A0020307839
:100240002530327800255309203D000001020304C7
:100250000500A30C11241FBECFEFD8E0DEBFCDBF39
:1002600011E0A0E0B1E0EEE5F8E202C005900D92E9
:10027000AC37B107D9F722E0ACE7B1E001C01D927D
:10028000A23AB207E1F711E0CAE2D1E004C0219737
:10029000FE010E94FF13C932D107C9F70E94C809A5
:1002A0000C942D140C940000CF92DF92EF92FF92E9
:1002B0000F931F93CF93DF936C017A018B01C0E002
:1002C000D0E0CE15DF0589F0D8016D918D01D60102
:1002D000ED91FC910190F081E02DC6010995892BEB
:1002E00011F47E0102C02196ECCFC701DF91CF91BE
:1002F0001F910F91FF90EF90DF90CF900895089598
:1003000080E090E00895FC01538D448D252F30E06E
:10031000842F90E0821B930B541710F0CF96089512
:1003200001970895FC01918D828D981761F0828D5F
:10033000DF01A80FB11D5D968C91928D9F5F9F7319
:10034000928F90E008958FEF9FEF0895FC01918DBB
:10035000828D981731F0828DE80FF11D858D90E028
:1003600008958FEF9FEF0895FC01918D228D892FC5
:1003700090E0805C9F4F821B91098F7399270895AD
:1003800088E991E00E94B40121E0892B09F420E082
:10039000822F0895FC01848DDF01A80FB11DA35A9F
:1003A000BF4F2C91848D90E001968F739927848F95
:1003B000A689B7892C93A089B1898C9180648C938C
:1003C000938D848D981306C00288F389E02D808177
:1003D0008F7D80830895EF92FF920F931F93CF93A9
:1003E000DF93EC0181E0888F9B8D8C8D981305C085
:1003F000E889F989808185FD24C0F62E0B8D10E0F7
:100400000F5F1F4F0F731127E02E8C8DE8120CC069
:100410000FB607FCFACFE889F989808185FFF5CF0F
:10042000CE010E94CA01F1CF8B8DFE01E80FF11DB4
:10043000E35AFF4FF0820B8FEA89FB89808180624B
:1004400007C0EE89FF896083E889F989808180642B
:10045000808381E090E0DF91CF911F910F91FF9019
:10046000EF900895CF93DF93EC01888D8823C9F036
:10047000EA89FB89808185FD05C0A889B9898C91AD
:1004800086FD0FC00FB607FCF5CF808185FFF2CF48
:10049000A889B9898C9185FFEDCFCE010E94CA0150
:1004A000E7CFDF91CF91089580E090E0892B29F08C
:1004B0000E94C00181110C94000008953FB7F89488
:1004C0008091810190918201A0918301B09184017A
:1004D00026B5A89B05C02F3F19F00196A11DB11D9F
:1004E0003FBFBA2FA92F982F8827820F911DA11DDA
:1004F000B11DBC01CD0142E0660F771F881F991F17
:100500004A95D1F70895CF93C82F682F88E991E0D5
:100510000E94EB018C2FCC0F990BCF9108950E9474
:1005200005146115710579F0FB0101900020E9F7D0
:100530003197AF01461B570BDC01ED91FC91028016
:10054000F381E02D099480E090E008954F925F924E
:100550006F927F92EF92FF920F931F93CF93DF934F
:10056000CDB7DEB7A1970FB6F894DEBF0FBECDBFF3
:100570007C01FA01CB0119A2223008F42AE08E0195
:100580000F5D1F4F422E512C612C712CBF01A30116
:1005900092010E945F12F901CA01015011096A30EB
:1005A00014F4605D01C0695CD8016C93232B242B8B
:1005B000252B61F7B801C7010E949102A1960FB6E1
:1005C000F894DEBF0FBECDBFDF91CF911F910F9189
:1005D000FF90EF907F906F905F904F9008951F92E3
:1005E0000F920FB60F9211242F933F934F935F9367
:1005F0006F937F938F939F93AF93BF93EF93FF93EB
:1006000088E991E00E94CA01FF91EF91BF91AF91FB
:100610009F918F917F916F915F914F913F912F911A
:100620000F900FBE0F901F9018951F920F920FB64C
:100630000F9211242F938F939F93EF93FF93E09149
:10064000A801F091A9018081E091AE01F091AF0184
:1006500082FD12C090818091B1018F5F8F732091D4
:10066000B201821751F0E091B101F0E0E856FE4F7F
:10067000958F8093B10101C08081FF91EF919F918F
:100680008F912F910F900FBE0F901F90189590E0B3
:10069000FC01EC53FF4F3491FC01EC5EFD4F2491C3
:1006A000FC01E050FE4FE491EE2309F43BC03323FC
:1006B00039F1333091F038F43130A9F0323001F5AE
:1006C00084B58F7D12C0373091F03830A1F03430CE
:1006D000B9F4809180008F7D03C0809180008F7776
:1006E000809380000DC084B58F7784BD09C0809150
:1006F000B0008F7703C08091B0008F7D8093B000F1
:10070000F0E0EE0FFF1FE451FE4FA591B4918FB7BB
:10071000F894EC91611103C020952E2301C02E2B7B
:100720002C938FBF08958230910538F0880F991F60
:10073000880F991F05970197F1F708958F929F925F
:10074000AF92BF92CF92DF92EF92FF926B017C014A
:100750000E945E024B015C01C114D104E104F1046A
:10076000F1F00E945E02DC01CB0188199909AA0907
:10077000BB09883E9340A105B10570F321E0C21A80
:10078000D108E108F10888EE880E83E0981EA11CCC
:10079000B11CC114D104E104F10419F7DDCFFF90BD
:1007A000EF90DF90CF90BF90AF909F908F90089583
:1007B0001F920F920FB60F9211242F933F938F9396
:1007C0009F93AF93BF938091940190919501A091D5
:1007D0009601B09197013091800123E0230F2D37CE
:1007E00020F40196A11DB11D05C026E8230F029635
:1007F000A11DB11D209380018093940190939501D8
:10080000A0939601B093970180918101909182010C
:10081000A0918301B09184010196A11DB11D809327
:10082000810190938201A0938301B0938401BF91D1
:10083000AF919F918F913F912F910F900FBE0F908D
:100840001F9018958EBD00000DB407FEFDCF8EB52C
:1008500008951F920F920FB60F9211242F933F937A
:100860004F935F936F937F938F939F93AF93BF93B8
:10087000EF93FF9380918C0190918D018093B20052
:1008800080918F0190919001A0919101B09192017E
:100890000196A11DB11D80938F0190939001A093AB
:1008A0009101B093920140918F015091900160911C
:1008B0009101709192018091880190918901A0919C
:1008C0008A01B0918B01481759076A077B07B0F07E
:1008D00080918E01811112C081E080938E0110926F
:1008E0008F01109290011092910110929201E0916B
:1008F0008601F0918701099510928E01FF91EF9189
:10090000BF91AF919F918F917F916F915F914F9127
:100910003F912F910F900FBE0F901F90189560E0A0
:1009200070E083E892E00C94FC0CCF92DF92EF929F
:10093000FF920F931F93CF93DF93CDB7DEB7A497AA
:100940000FB6F894DEBF0FBECDBF80917E019091AF
:100950007F01019690937F0180937E010A9709F0B1
:100960007DC010927F0110927E0188EC80937C0004
:1009700080917A00806880937A0064E170E080E082
:1009800090E00E949E0380917A00806480937A00B8
:1009900080917A0086FDFCCFC0907800D0907900DD
:1009A000E12CF12C2AE0B701A60188E991E00E9430
:1009B000A60267E271E088E991E00E949102C70116
:1009C000B6010E94401120E030E047E952E40E9465
:1009D000B81226EF38E24CE95FE30E9425136B0161
:1009E0007C010E9467070E948F04C701B6010E9424
:1009F00097137F936F931F9281E08F938AE291E028
:100A00009F938F938FE291E09F938F938E010F5F5F
:100A10001F4F1F930F930E940A1489E00E942B0618
:100A20000FB6F894DEBF0FBECDBF80FD0DC00E9493
:100A30003907F80101900020E9F76E2F601BC8010B
:100A40000E94E6060E94B0066AE371E088E991E040
:100A50000E949102C701B6010E94670761E082E02F
:100A60000E94470362E370E080E090E00E949E03F2
:100A700087E480937C0080917A00806480937A0080
:100A800080917A0086FDFCCFE0907800809179001B
:100A9000F12CF82A60E082E00E9447038FEF93E098
:100AA0008E199F0967E070E00E94D713072E000C93
:100AB000880B990B0E9442116B017C0120E030E011
:100AC00048EC52E40E94CD13181634F4C12CD12CFA
:100AD00088ECE82E82E4F82EC701B6010E94971335
:100AE0006B017C0180917C0190917D01AC014350B0
:100AF0005109C416D5062CF003968C159D050CF0F3
:100B00005AC0D0927D01C0927C010E948F04DF9276
:100B1000CF921F9281E08F9383E591E09F938F9313
:100B20008FE291E09F938F938E010F5F1F4F1F9372
:100B30000F930E940A1489E00E942B060FB6F894C6
:100B4000DEBF0FBECDBF80FD0DC00E943907F8018A
:100B500001900020E9F76E2F601BC8010E94E60695
:100B60000E94B00668E571E088E991E00E94910278
:100B7000A601DD0C660B770B77FF12C08DE249A34F
:100B80005AA36BA37CA30E94EA0549A15AA16BA1B9
:100B90007CA170956095509541955F4F6F4F7F4F49
:100BA0002AE088E991E00E94A60267E271E088E904
:100BB00091E00E949102A4960FB6F894DEBF0FBE9A
:100BC000CDBFDF91CF911F910F91FF90EF90DF90FC
:100BD000CF900895E0919801F09199010190F081F2
:100BE000E02D682F88E991E00994CF93DF939CB5BD
:100BF0009F7D9CBD9CB5937F9CBD9CB59C7F9CBDFF
:100C00009DB591609DBDCDE7D2E0682F8A810E949D
:100C100047038C899D89DF91CF910C94930381E0E8
:100C20000C94F50580E00C94F505CF93DF931F92AB
:100C3000CDB7DEB789830E94120689810E94220403
:100C400089830E940F0689810F90DF91CF910895CB
:100C500081EE0C941506CF93DF931F92CDB7DEB7CC
:100C600089830E94120689818F710E9422048FEF6E
:100C70000E94220489830E940F0689810F90DF91D0
:100C8000CF9108951F93CF93DF9300D0CDB7DEB7F8
:100C90006A8389830E94120689818F7180620E9413
:100CA0002204182F6A81862F0E9422040E940F06B8
:100CB000812F0F900F90DF91CF911F910895EF92A8
:100CC000FF920F931F93CF93DF9300D01F92CDB766
:100CD000DEB7162F4A837B8389830E94120689819F
:100CE0008F7180620E942204082FE12E7B81F72EF3
:100CF0004A81140F1E1531F0F70181917F010E9486
:100D00002204F8CF0E940F06802F0F900F900F90B3
:100D1000DF91CF911F910F91FF90EF900895209157
:100D20007D0230917E0240917F0250918002241713
:100D3000350721F0682F822F0C944703089580E037
:100D40000E942B0681FD0BC0682F626080E00E942C
:100D5000420665E070E080E090E00C949E03089508
:100D60000E949F0680E00E942B06682F616080E051
:100D70000E94420660E787E00E94420681E00E94EE
:100D80008F0680918602882341F040918B0266E8AD
:100D900072E08AE00E945F0612C082E00E942B0689
:100DA000EBE4F2E0E49121E030E001C0220FEA95AB
:100DB000EAF72095622F682382E00E9442068DE1C7
:100DC0000E942B0681FD0C9428060895DF92EF9275
:100DD000FF920F931F93CF93DF931F92CDB7DEB790
:100DE000F82E20918402E62E261708F4E22E809138
:100DF0008502811103C0D22EDE1801C0D12C998347
:100E00000E94120680EA0E9422040F2D9981192F58
:100E1000FE0CF01631F0F80181918F010E9422043E
:100E2000F8CFDD2029F080E00E942204DA94F9CF87
:100E30000E940F0681E00E948F068FEF0E94150628
:100E40008073D9F380E00E948F0660E787E00E94FC
:100E5000420684FF04C00E94280680E001C081E0B1
:100E60000F90DF91CF911F910F91FF90EF90DF9046
:100E7000089580E00E948F0680918D0290918E02ED
:100E80000E9493038DE10E942B0681FF08C0809190
:100E90008D0290918E020E9493030E94280680E0AA
:100EA0000E942B06682F6E7F80E00E94420682E03F
:100EB0000E942B06EBE4F2E0E49161E070E001C0F7
:100EC000660FEA95EAF7682B82E00C9442064F928F
:100ED0005F926F927F928F929F92AF92BF92CF92CA
:100EE000DF92EF92FF926B017C019B01AC010E94AB
:100EF000D213882319F06FE671E01AC0460157013A
:100F0000E894B7F82FEF3FEF4FE75FE7C501B40173
:100F10000E94D213811112C02FEF3FEF4FE75FE71E
:100F2000C501B4010E943B11181644F463E771E057
:100F300088E991E00E9491027C0186C02FEF3FEF8B
:100F40004FE75FE4C701B6010E94CD1318161CF4E9
:100F500067E771E0EDCF2FEF3FEF4FE75FECC701A1
:100F6000B6010E943B1187FDF3CF20E030E0A901DC
:100F7000C701B6010E943B1187FF09C08DE20E94A4
:100F8000EA055C01F7FAF094F7F8F09402C0A12C9E
:100F9000B12C2AE037ED43EA5BE3C701B6010E94BA
:100FA000B9122B013C010E949E136B017C010E942F
:100FB00040119B01AC01C301B2010E94B8122B0188
:100FC0003C012AE0B701A60188E991E00E94A6024F
:100FD0007C01EA0CFB1C8EE20E94EA05E80EF91E79
:100FE00020E030E040E251E4C301B2010E94A111CF
:100FF0002B013C010E949E134B01A12CB12C2AE035
:10100000B501A40188E991E00E94A602E80EF91E4C
:10101000C501B4010E9440119B01AC01C301B201A2
:101020000E94B81220E030E040E251E40E94A11199
:101030000E949E13AB0160E070E02AE088E991E035
:101040000E94A602E80EF91E67E271E088E991E0CD
:101050000E9491028E0D9F1DFF90EF90DF90CF9028
:10106000BF90AF909F908F907F906F905F904F90C8
:101070000895EF92FF920F931F93CF93DF931F92E8
:10108000CDB7DEB7E42E9F938F9385E492E09F93D4
:101090008F9369830E94470D6981E60E0F900F9030
:1010A0000F900F900DE312E06E1591F0FF24F39472
:1010B000F60E862F0E942B061F928F931F930F937D
:1010C0000E94470D0F900F900F900F906F2DECCF57
:1010D0008AE392E09F938F930E94470D0F900F90A9
:1010E0000F90DF91CF911F910F91FF90EF90089596
:1010F0002F923F924F925F926F927F928F929F9228
:10110000AF92BF92CF92DF92EF92FF920F931F9315
:10111000CF93DF931F92CDB7DEB7562E342E6DB628
:101120007EB69F938F9384E392E09F938F930E9468
:10113000470D350C0F900F900F900F9080E3C82E45
:1011400082E0D82E9BE2A92E92E0B92E531409F426
:101150004EC08DB69EB690918B02092F10E02DB730
:101160003EB7201B310B0FB6F8943EBF0FBE2DBF0C
:10117000EDB7FEB731967F0122242394250C998385
:101180000E941206852D8F710E94220427019981E9
:101190009E0D941549F08FEF99830E942204F2016D
:1011A00081932F019981F5CF0E940F06DF92CF9294
:1011B0000E94470D0E0D1F1D0F900F900150110939
:1011C0000E151F0568F0F80180811F928F93BF9262
:1011D000AF920E94470D0F900F900F900F90EECF9F
:1011E0000FB6F8949EBE0FBE8DBE522CAFCF88E2D4
:1011F00092E09F938F930E94470D0F900F900FB630
:10120000F8947EBE0FBE6DBE0F90DF91CF911F91FF
:101210000F91FF90EF90DF90CF90BF90AF909F9095
:101220008F907F906F905F904F903F902F90089598
:101230000F931F93CF938C0186E00E942B06C82F3B
:10124000C77D0230110531F4C0628BE990E0A0E067
:10125000B0E00DC00130110529F085E590E0A0E077
:10126000B0E005C0C86081E490E0A0E0B0E0809309
:101270008D0290938E02A0938F02B09390026C2FF8
:1012800086E00E94420686E00E942B0691E08C13C5
:1012900090E0892FCF911F910F91089590E0FC016C
:1012A000EC5EFD4F2491FC01E050FE4F84918823B9
:1012B00099F090E0880F991FFC01EA50FE4FA5912C
:1012C000B491FC01E451FE4F859194918FB7F8944D
:1012D000EC91E22BEC938FBF0895E8E9F1E0A0894F
:1012E000B18982E08C93A485B5851C92A685B785CB
:1012F00080E18C93108EA489B58986E08C93A289B5
:10130000B3898C9180618C93A289B3898C91886018
:101310008C93A289B3898C9180688C930288F3891D
:10132000E02D80818F7D80830895CF92DF92EF92B0
:10133000FF920F931F932FB7F894C0909401D09011
:101340009501E0909601F09097012FBFDC01CB0151
:101350008C0D9D1DAE1DBF1D4FB7F89400919401DB
:101360001091950120919601309197014FBF0C1576
:101370001D052E053F0528F080179107A207B3072A
:1013800058F71F910F91FF90EF90DF90CF90089545
:10139000CF93DF93CDB7DEB760970FB6F894DEBF7B
:1013A0000FBECDBF789484B5826084BD84B5816062
:1013B00084BD85B5826085BD85B5816085BD809120
:1013C0006E00816080936E00109281008091810098
:1013D0008260809381008091810081608093810090
:1013E000809180008160809380008091B100846052
:1013F0008093B1008091B00081608093B0008091B3
:101400007A00846080937A0080917A008260809371
:101410007A0080917A00816080937A0080917A00CE
:10142000806880937A001092C10010927902109225
:101430007A0210927B0210927C0210923702109274
:1014400038021092390210923A0268EB7BE080E099
:1014500090E00E94950988E991E09093780280934A
:1014600077020E946D092FB7F894809194019091B2
:101470009501A0919601B09197012FBF80933702FB
:1014800090933802A0933902B0933A0268E171E078
:1014900080917702909178020E9491026AE070E058
:1014A00080E090E00E94950911E010934B0282E0E9
:1014B0000E944E0960E082E00E94470368EE73E0FC
:1014C00080E090E00E949E030E946D0910939301BA
:1014D0000E948F0480917D0290917E0220917F0274
:1014E000309180028217930711F00E944E0980917B
:1014F0007F029091800220917D0230917E02281718
:10150000390711F00E944E091FB7F89480918501A8
:10151000811124C0EAE0F2E08491EEE1F2E09491DE
:10152000E82FF0E0EE0FFF1FEA50FE4FA591B491B7
:10153000EC91E92321F461E08AE00E9447038AE00C
:101540000E944E098CB580618CBD8CB580648CBDC9
:101550008DE00E944E098BE00E944E09809185012A
:101560008F5F809385011FBF80E00E948F0681E01E
:101570000E94F50565E070E080E090E00E949E0327
:101580006CE080E00E9442066FE584E00E94420623
:1015900082E090E00E941809882319F081E080938E
:1015A000830286E00E942B0680E090E00E941809EA
:1015B0000E94120680E50E94220483E70E94220412
:1015C0000E940F0660E08DE10E94420660E08CE11F
:1015D0000E9442061092850260E787E00E94420660
:1015E0006CE485E00E94420682EE0E9415060E948D
:1015F00028060E949F0680E00E942B06682F6E7FBF
:1016000080E00E9442068DE10E942B06682F6460F4
:101610008DE10E9442068CE10E942B06682F6F63C9
:101620008CE10E94420611E01093850281E090E077
:101630000E94180986E00E942B06682F676086E0EA
:101640000E9442066AE285E00E94420663E184E06D
:101650000E944206198780EF8A878B878C878D8747
:101660001E861F86188A40918B02BE01675F7F4FDE
:101670008AE00E945F0640918B02BE01675F7F4F48
:1016800080E10E945F066091840281E10E9442062F
:1016900088EE89838A838B838C838D831E821F824D
:1016A0001886E7EEF1E0849140918B02BE016F5FF6
:1016B0007F4F0E945F06E1EEF1E084916091840229
:1016C0000E94420682E00E942B06ECE4F2E0E491E4
:1016D00061E070E001C0660FEA95EAF7682B82E0EE
:1016E0000E9442066FE381E00E9442060E94B0061B
:1016F0008FEF0E941506282F30E0982F91701F92CF
:101700009F9335952795277033273F932F9384FB1D
:10171000992790F91F929F9385FB992790F91F9223
:101720009F9386FB992790F91F929F931F928F9307
:1017300088ED90E09F938F930E94470D42E06AE00E
:1017400083ED91E00E94780844E06CE086EC91E043
:101750000E94390841E060E18DEB91E00E94780839
:1017600046E061E182EB91E00E94390841E061E0EE
:101770008BEA91E00E94390841E062E081EA91E061
:101780000E94390841E065E08AE991E00E94390849
:1017900041E066E081E991E00E94390841E060E0C3
:1017A00089E891E00E94390842E06CE18BE791E022
:1017B0000E94390886E00E942B0688720FB6F894C2
:1017C000DEBF0FBECDBF803241F021E090E0883017
:1017D00009F020E0E22FF92F02C0E2E0F0E0EE0F86
:1017E000FF1FEB58FE4F859194919F938F9383E653
:1017F00091E09F938F930E94470DE0918302F0E068
:10180000EE0FFF1FE15AFE4F859194919F938F93A6
:1018100080E591E09F938F930E94470D80E00E94A6
:101820002B06182F81E00E942B060FB6F894DEBF1E
:101830000FBECDBF13FD02C0882329F012FD06C0E4
:10184000E1E0F0E005C0E0E0F0E002C0E2E0F0E05E
:10185000EE0FFF1FE65BFE4F859194919F938F9350
:1018600087E391E09F938F930E94470D86E00E944B
:101870002B068670E82FF0E0E15DFE4F8591949194
:101880009F938F938EE191E09F938F930E94470DDA
:10189000809170008E7F809370008091B0008C7F6B
:1018A0008093B0008091B100877F8093B1008091D8
:1018B000B6008F7D8093B600809170008D7F8093FD
:1018C00070008091B10084608093B1008091B1007C
:1018D0008C7F8093B10086E090E090938D0180939F
:1018E0008C0188EE93E0A0E0B0E0809388019093B3
:1018F0008901A0938A01B0938B0185E994E09093CC
:1019000087018093860110928F01109290011092AE
:1019100091011092920110928E0180918C01909110
:101920008D018093B200809170008160809370007F
:101930000FB6F894DEBF0FBECDBF11E01093930138
:101940000E945402FBCFE8E9F1E01382128288EE94
:1019500093E0A0E0B0E084839583A683B7838AE018
:1019600091E09183808385EC90E09587848784EC77
:1019700090E09787868780EC90E0918B808B81EC5C
:1019800090E0938B828B82EC90E0958B848B86EC3D
:1019900090E0978B868B118E128E138E148EE5E35A
:1019A000F2E016821782108611861286138614863C
:1019B000158616861786108A118A128A138A148A47
:1019C000158AEDE7F2E086E090E09183808387E07E
:1019D00090E093838283168280E28783108685E07D
:1019E000868785E090E0A0E0B0E0848B958BA68BA5
:1019F000B78B11860C948F040F931F93CF93DF93B3
:101A0000009731F46115710519F480E090E03AC057
:101A10008B01EC016EE070E081E090E00E943F0FEE
:101A2000FC01892B91F380E883830115110571F086
:101A30001387028781E883838091980290919902AD
:101A4000892B21F4F0939902E09398022097C9F032
:101A5000D187C08783818260838380919A0290912D
:101A60009B02892B71F4F0939B02E0939A02809180
:101A70009C0290919D02892B21F4F0939D02E093AA
:101A80009C02CF01DF91CF911F910F910895A0E0AB
:101A9000B0E0EDE4FDE00C948F12AE01495F5F4FC2
:101AA000DA016D917D91AD0108E912E0F8018281C2
:101AB0009381DC0113962C911397286013962C9335
:101AC0000E946D0DD8011296ED91FC911397238120
:101AD000277F2383E4E00C94AB12ACE0B0E0E3E7B3
:101AE000FDE00C9481127C016B018A01FC011782DC
:101AF0001682838181FFBDC1CE0101964C01F701A1
:101B00009381F60193FD859193FF81916F01882365
:101B100009F4ABC1853239F493FD859193FF81912E
:101B20006F01853229F4B70190E00E94A510E7CF3C
:101B3000512C312C20E02032A0F48B3269F030F4AB
:101B4000803259F0833269F420612CC08D3239F033
:101B5000803339F4216026C02260246023C02860CD
:101B600021C027FD27C030ED380F3A3078F426FF2A
:101B700006C0FAE05F9E300D1124532E13C08AE098
:101B8000389E300D1124332E20620CC08E3221F489
:101B900026FD6BC1206406C08C3611F4206802C09B
:101BA000883641F4F60193FD859193FF81916F0191
:101BB0008111C1CF982F9F7D9554933028F40C5FED
:101BC0001F4FFFE3F9830DC0833631F0833771F087
:101BD000833509F05BC022C0F801808189830E5FE4
:101BE0001F4F44244394512C540115C03801F2E096
:101BF0006F0E711CF801A080B18026FF03C0652D17
:101C000070E002C06FEF7FEFC5012C870E949A1031
:101C10002C0183012C852F77222E17C03801F2E08A
:101C20006F0E711CF801A080B18026FF03C0652DE6
:101C300070E002C06FEF7FEFC5012C870E94881013
:101C40002C012C852068222E830123FC1BC0832DB0
:101C500090E048165906B0F4B70180E290E00E9487
:101C6000A5103A94F4CFF50127FC859127FE8191C8
:101C70005F01B70190E00E94A51031103A94F1E0A5
:101C80004F1A51084114510471F7E5C0843611F020
:101C9000893639F5F80127FF07C06081718182819B
:101CA00093810C5F1F4F08C060817181072E000C6B
:101CB000880B990B0E5F1F4F2F76722E97FF09C06E
:101CC00090958095709561957F4F8F4F9F4F2068BD
:101CD000722E2AE030E0A4010E94DD10A82EA81880
:101CE00044C0853729F42F7EB22E2AE030E025C08B
:101CF000F22FF97FBF2E8F36C1F018F4883579F0B6
:101D0000B4C0803719F0883721F0AFC02F2F206181
:101D1000B22EB4FE0DC08B2D8460B82E09C024FFF6
:101D20000AC09F2F9660B92E06C028E030E005C09B
:101D300020E130E002C020E132E0F801B7FE07C048
:101D400060817181828193810C5F1F4F06C0608129
:101D5000718180E090E00E5F1F4FA4010E94DD10B2
:101D6000A82EA818FB2DFF777F2E76FE0BC0372DEF
:101D70003E7FA51450F474FE0AC072FC08C0372DD3
:101D80003E7E05C0BA2C372D03C0BA2C01C0B52C3D
:101D900034FF0DC0FE01EA0DF11D8081803311F486
:101DA000397E09C032FF06C0B394B39404C0832FB8
:101DB000867809F0B39433FD13C030FF06C05A2C67
:101DC000B31418F4530C5B18B32CB31468F4B701B4
:101DD00080E290E03C870E94A510B3943C85F5CF4B
:101DE000B31410F43B1801C0312C34FF12C0B701FA
:101DF00080E390E03C870E94A5103C8532FF17C02D
:101E000031FD03C088E790E002C088E590E0B701AB
:101E10000CC0832F867859F031FF02C08BE201C0DD
:101E200080E237FD8DE2B70190E00E94A510A51475
:101E300038F4B70180E390E00E94A5105A94F7CFE0
:101E4000AA94F401EA0DF11D8081B70190E00E948F
:101E5000A510A110F5CF332009F451CEB70180E2CF
:101E600090E00E94A5103A94F6CFF7018681978101
:101E700002C08FEF9FEF2C96E2E10C949D120F931E
:101E80001F93CF93DF93869F8001879F100D969FAE
:101E9000100D1124C8010E945B0FEC01009729F07E
:101EA000A80160E070E00E949310CE01DF91CF9115
:101EB0001F910F910895CF93DF938230910510F415
:101EC00082E090E0E091A002F091A10220E030E0F9
:101ED000C0E0D0E0309711F1408151814817590797
:101EE000C0F04817590761F482819381209719F057
:101EF0009B838A832BC09093A1028093A00226C06B
:101F00002115310519F04217530718F49A01BE0143
:101F1000DF01EF010280F381E02DDCCF21153105D7
:101F200009F1281B390B2430310590F412968D915C
:101F30009C9113976115710521F0FB0193838283B6
:101F400004C09093A1028093A002FD01329644C088
:101F5000FD01E20FF31F81939193225031092D93DC
:101F60003C933AC020919E0230919F02232B41F472
:101F7000209102013091030130939F0220939E0231
:101F800020910001309101012115310541F42DB757
:101F90003EB74091040150910501241B350BE0919F
:101FA0009E02F0919F02E217F307A0F42E1B3F0B55
:101FB0002817390778F0AC014E5F5F4F24173507BB
:101FC00048F04E0F5F1F50939F0240939E028193F3
:101FD000919302C0E0E0F0E0CF01DF91CF9108954E
:101FE0000F931F93CF93DF93009709F48CC0FC01EC
:101FF0003297138212820091A0021091A102011562
:10200000110581F420813181820F931F20919E025E
:1020100030919F022817390779F5F0939F02E093DA
:102020009E0271C0D80140E050E0AE17BF0750F4E7
:1020300012962D913C911397AD012115310509F1AF
:10204000D901F3CF9D01DA0133832283608171814D
:10205000860F971F8217930769F4EC012881398155
:10206000260F371F2E5F3F4F318320838A819B814C
:1020700093838283452B29F4F093A102E093A0027D
:1020800042C01396FC93EE931297ED01499159913A
:102090009E01240F351FE217F30771F480819181AF
:1020A000840F951F029611969C938E938281938143
:1020B00013969C938E931297E0E0F0E0D80112966D
:1020C0008D919C911397009719F0F8018C01F6CF30
:1020D0008D919C9198012E5F3F4F820F931F20910D
:1020E0009E0230919F022817390769F4309729F42E
:1020F0001092A1021092A00202C0138212821093C9
:102100009F0200939E02DF91CF911F910F9108953E
:10211000FC010590615070400110D8F780959095B2
:102120008E0F9F1F0895DC0101C06D9341505040F8
:10213000E0F70895FC016150704001900110D8F75C
:10214000809590958E0F9F1F08950F931F93CF93A7
:10215000DF93FB01238121FD03C08FEF9FEF28C098
:1021600022FF16C0468157812481358142175307CB
:1021700044F4A081B1819D012F5F3F4F31832083C3
:102180008C93268137812F5F3F4F3783268310C082
:10219000EB01092F182F0084F185E02D0995892B7B
:1021A000E1F68E819F8101969F838E83812F902FF0
:1021B000DF91CF911F910F910895FA01AA2728303E
:1021C00051F1203181F1E8946F936E7F6E5F7F4F04
:1021D0008F4F9F4FAF4FB1E03ED0B4E03CD0670F80
:1021E000781F891F9A1FA11D680F791F8A1F911DD3
:1021F000A11D6A0F711D811D911DA11D20D009F423
:1022000068943F912AE0269F11243019305D319364
:10221000DEF6CF010895462F4770405D4193B3E04D
:102220000FD0C9F7F6CF462F4F70405D4A3318F0F4
:10223000495D31FD4052419302D0A9F7EACFB4E0A5
:10224000A6959795879577956795BA95C9F700975D
:102250006105710508959B01AC010A2E06945795FE
:10226000479537952795BA95C9F7620F731F841F55
:10227000951FA01D08950E947D1108F481E0089526
:10228000E89409C097FB3EF4909580957095619510
:102290007F4F8F4F9F4F9923A9F0F92F96E9BB27C6
:1022A0009395F695879577956795B795F111F8CF42
:1022B000FAF4BB0F11F460FF1BC06F5F7F4F8F4FAD
:1022C0009F4F16C0882311F096E911C0772321F0A3
:1022D0009EE8872F762F05C0662371F096E8862F3B
:1022E00070E060E02AF09A95660F771F881FDAF792
:1022F000880F9695879597F90895990F0008550FBF
:10230000AA0BE0E8FEEF16161706E807F907C0F07B
:1023100012161306E407F50798F0621B730B840B83
:10232000950B39F40A2661F0232B242B252B21F45D
:1023300008950A2609F4A140A6958FEF811D811DFD
:1023400008950E94B4110C9425120E94171238F0BF
:102350000E941E1220F0952311F00C940E120C9482
:10236000141211240C9459120E94361270F3959F86
:10237000C1F3950F50E0551F629FF001729FBB277C
:10238000F00DB11D639FAA27F00DB11DAA1F649F18
:102390006627B00DA11D661F829F2227B00DA11DCB
:1023A000621F739FB00DA11D621F839FA00D611D51
:1023B000221F749F3327A00D611D231F849F600D72
:1023C000211D822F762F6A2F11249F5750409AF09B
:1023D000F1F088234AF0EE0FFF1FBB1F661F771F27
:1023E000881F91505040A9F79E3F510580F00C94F2
:1023F0000E120C9459125F3FE4F3983ED4F3869585
:1024000077956795B795F795E7959F5FC1F7FE2B91
:10241000880F911D9695879597F9089597F99F676D
:1024200080E870E060E008959FEF80EC089500245C
:102430000A941616170618060906089500240A9429
:1024400012161306140605060895092E0394000CAF
:1024500011F4882352F0BB0F40F4BF2B11F460FF3E
:1024600004C06F5F7F4F8F4F9F4F089557FD905867
:10247000440F551F59F05F3F71F04795880F97FB48
:10248000991F61F09F3F79F0879508951216130602
:102490001406551FF2CF4695F1DF08C01616170631
:1024A0001806991FF1CF8695710561050894089566
:1024B000E894BB2766277727CB0197F90895A1E217
:1024C0001A2EAA1BBB1BFD010DC0AA1FBB1FEE1FAE
:1024D000FF1FA217B307E407F50720F0A21BB30BF9
:1024E000E40BF50B661F771F881F991F1A9469F775
:1024F00060957095809590959B01AC01BD01CF01D1
:1025000008952F923F924F925F926F927F928F9297
:102510009F92AF92BF92CF92DF92EF92FF920F9372
:102520001F93CF93DF93CDB7DEB7CA1BDB0B0FB67C
:10253000F894DEBF0FBECDBF09942A883988488839
:102540005F846E847D848C849B84AA84B984C884CF
:10255000DF80EE80FD800C811B81AA81B981CE0FC6
:10256000D11D0FB6F894DEBF0FBECDBFED010895AB
:102570005058BB27AA270E94D0120C9425120E9403
:10258000171238F00E941E1220F039F49F3F19F400
:1025900026F40C9414120EF4E095E7FB0C940E1242
:1025A000E92F0E94361258F3BA176207730784079F
:1025B000950720F079F4A6F50C9458120EF4E095E6
:1025C0000B2EBA2FA02D0B01B90190010C01CA01ED
:1025D000A0011124FF27591B99F0593F50F4503E98
:1025E00068F11A16F040A22F232F342F4427585F8A
:1025F000F3CF469537952795A795F0405395C9F7A2
:102600007EF41F16BA0B620B730B840BBAF0915059
:10261000A1F0FF0FBB1F661F771F881FC2F70EC0F8
:10262000BA0F621F731F841F48F4879577956795CB
:10263000B795F7959E3F08F0B0CF9395880F08F0B7
:102640009927EE0F9795879508950E9439130C945A
:1026500025120E941E1258F00E94171240F029F411
:102660005F3F29F00C940E1251110C9459120C94E6
:1026700014120E94361268F39923B1F3552391F393
:10268000951B550BBB27AA2762177307840738F0E1
:102690009F5F5F4F220F331F441FAA1FA9F335D03E
:1026A0000E2E3AF0E0E832D091505040E695001CF2
:1026B000CAF72BD0FE2F29D0660F771F881FBB1FAC
:1026C000261737074807AB07B0E809F0BB0B802D8A
:1026D000BF01FF2793585F4F3AF09E3F510578F0B6
:1026E0000C940E120C9459125F3FE4F3983ED4F30D
:1026F000869577956795B795F7959F5FC9F7880F8A
:10270000911D9695879597F90895E1E0660F771FDB
:10271000881FBB1F621773078407BA0720F0621B6C
:10272000730B840BBA0BEE1F88F7E09508950E9497
:102730009E136894B1110C94591208950E943E1290
:1027400088F09F5798F0B92F9927B751B0F0E1F072
:10275000660F771F881F991F1AF0BA95C9F714C022
:10276000B13091F00E945812B1E008950C945812C3
:10277000672F782F8827B85F39F0B93FCCF386955B
:1027800077956795B395D9F73EF4909580957095B8
:1027900061957F4F8F4F9F4F08950E947D1108F4E0
:1027A0008FEF08950E947D11880B990B089597FB78
:1027B000072E16F4009407D077FD09D00E94EB1382
:1027C00007FC05D03EF4909581959F4F0895709534
:1027D00061957F4F0895AA1BBB1B51E107C0AA1F3B
:1027E000BB1FA617B70710F0A61BB70B881F991FB2
:1027F0005A95A9F780959095BC01CD010895EE0FEB
:10280000FF1F0590F491E02D099481E090E0F89489
:102810000C942D14AEE0B0E0E0E1F4E10C948F12E2
:102820000D891E8986E08C831A8309838FEF9FE7C9
:102830009E838D83AE01475E5F4F6F89788DCE0199
:1028400001960E946D0D2F813885F801E20FF31F6C
:0E28500010822E96E4E00C94AB12F894FFCFA9
:10285E000000A202800000000000EB015401830181
:10286E003202B4019201A601564D4450565F317C9E
:10287E00315F564D4450560D0A0074627264002545
:10288E00732F253032643B256400436F72652074CC
:10289E00656D70657261747572652073656E642006
:1028AE003A2000687967730056616C7565206F6613
:1028BE002073656E736F722073656E64203A006EBE
:0C28CE00616E00696E66006F76660000A7
:00000001FF
