:100000000C945D000C9485000C9485000C94850084
:100010000C9485000C9485000C9485000C9485004C
:100020000C9485000C9485000C9485000C9485003C
:100030000C9485000C9485000C9485000C9485002C
:100040000C945C030C9485000C942A030C94040318
:100050000C9485000C9485000C9485000C9485000C
:100060000C9485000C94850000000008000201003B
:100070000003040700000000000000000000000072
:10008000250028002B0000000000240027002A0083
:10009000040404040404040402020202020203032E
:1000A0000303030301020408102040800102040836
:1000B0001020010204081020A60311241FBECFEF58
:1000C000D8E0DEBFCDBF22E0AEE5B1E001C01D92B9
:1000D000A535B207E1F711E0A0E0B1E0EEE9F2E109
:1000E00002C005900D92AE35B107D9F710E0CDE50D
:1000F000D0E004C02197FE010E944209CC35D1070F
:10010000C9F70E94E5030C944D090C940000E0E748
:10011000F1E0A089B18982E08C93A485B5851C9219
:10012000A685B78580E18C93108EA489B58986E079
:100130008C93A289B3898C9180618C93A289B389B5
:100140008C9188608C93A289B3898C9180688C9300
:100150000288F389E02D80818F7D80830895E0916E
:100160007001F09171010190F081E02D682F80E71E
:1001700091E00994CF92DF92EF92FF920F931F9339
:10018000CF93DF936C017A018B01C0E0D0E0CE15F4
:10019000DF0589F0D8016D918D01D601ED91FC91BB
:1001A0000190F081E02DC6010995892B11F47E01A3
:1001B00002C02196ECCFC701DF91CF911F910F9123
:1001C000FF90EF90DF90CF900895089580E090E049
:1001D0000895FC01538D448D252F30E0842F90E04D
:1001E000821B930B541710F0CF9608950197089532
:1001F000FC01918D828D981761F0828DDF01A80F2F
:10020000B11D5D968C91928D9F5F9F73928F90E050
:1002100008958FEF9FEF0895FC01918D828D9817BF
:1002200031F0828DE80FF11D858D90E008958FEFFC
:100230009FEF0895FC01918D228D892F90E0805CC5
:100240009F4F821B91098F739927089580E791E052
:100250000E941A0121E0892B09F420E0822F0895E1
:10026000FC01848DDF01A80FB11DA35ABF4F2C9153
:10027000848D90E001968F739927848FA689B78922
:100280002C93A089B1898C9180648C93938D848DFB
:10029000981306C00288F389E02D80818F7D8083CA
:1002A0000895EF92FF920F931F93CF93DF93EC018A
:1002B00081E0888F9B8D8C8D981305C0E889F98922
:1002C000808185FD24C0F62E0B8D10E00F5F1F4F3F
:1002D0000F731127E02E8C8DE8120CC00FB607FCAF
:1002E000FACFE889F989808185FFF5CFCE010E9498
:1002F0003001F1CF8B8DFE01E80FF11DE35AFF4F66
:10030000F0820B8FEA89FB898081806207C0EE89C9
:10031000FF896083E889F98980818064808381E036
:1003200090E0DF91CF911F910F91FF90EF90089592
:10033000CF93DF93EC01888D8823C9F0EA89FB898C
:10034000808185FD05C0A889B9898C9186FD0FC083
:100350000FB607FCF5CF808185FFF2CFA889B98958
:100360008C9185FFEDCFCE010E943001E7CFDF9168
:10037000CF91089580E090E0892B29F00E9426011A
:1003800081110C940000089590E0FC01E859FF4FA2
:100390003491FC01EC55FF4F2491FC01E057FF4FD5
:1003A000E491EE2309F43BC0332339F1333091F06B
:1003B00038F43130A9F0323001F584B58F7D12C0A8
:1003C000373091F03830A1F03430B9F480918000AA
:1003D0008F7D03C0809180008F77809380000DC057
:1003E00084B58F7784BD09C08091B0008F7703C03A
:1003F0008091B0008F7D8093B000F0E0EE0FFF1F82
:10040000E458FF4FA591B4918FB7F894EC91611126
:1004100003C020952E2301C02E2B2C938FBF08954F
:100420003FB7F8948091630190916401A0916501B8
:10043000B091660126B5A89B05C02F3F19F0019623
:10044000A11DB11D3FBFBA2FA92F982F8827820F5A
:10045000911DA11DB11DBC01CD0142E0660F771FAA
:10046000881F991F4A95D1F708958F929F92AF9256
:10047000BF92CF92DF92EF92FF926B017C010E94BC
:1004800010024B015C01C114D104E104F104F1F04C
:100490000E941002DC01CB0188199909AA09BB0945
:1004A000883E9340A105B10570F321E0C21AD1083E
:1004B000E108F10888EE880E83E0981EA11CB11CAB
:1004C000C114D104E104F10419F7DDCFFF90EF90DE
:1004D000DF90CF90BF90AF909F908F9008952FB7EF
:1004E000F89460915F017091600180916101909139
:1004F00062012FBF08958F929F92AF92BF92CF92C9
:10050000DF92EF92FF926B017C010E946F024B0120
:100510005C01C60ED71EE81EF91E0E946F02681508
:1005200079058A059B0528F0C616D706E806F90660
:10053000A0F7FF90EF90DF90CF90BF90AF909F908B
:100540008F9008950E9448096115710579F0FB01AB
:1005500001900020E9F73197AF01461B570BDC01F2
:10056000ED91FC910280F381E02D099480E090E010
:1005700008954F925F926F927F92EF92FF920F9346
:100580001F93CF93DF93CDB7DEB7A1970FB6F89443
:10059000DEBF0FBECDBF7C01FA01CB0119A2223014
:1005A00008F42AE08E010F5D1F4F422E512C612C62
:1005B000712CBF01A30192010E940808F901CA0130
:1005C000015011096A3014F4605D01C0695CD80102
:1005D0006C93232B242B252B61F7B801C7010E94B4
:1005E000A402A1960FB6F894DEBF0FBECDBFDF9177
:1005F000CF911F910F91FF90EF907F906F905F9040
:100600004F9008950C94A4021F920F920FB60F9270
:1006100011242F933F934F935F936F937F938F9307
:100620009F93AF93BF93EF93FF9380E791E00E9476
:100630003001FF91EF91BF91AF919F918F917F9189
:100640006F915F914F913F912F910F900FBE0F903F
:100650001F9018951F920F920FB60F9211242F938F
:100660008F939F93EF93FF93E0918001F09181012D
:100670008081E0918601F091870182FD12C0908116
:10068000809189018F5F8F7320918A01821751F0C9
:10069000E0918901F0E0E059FE4F958F8093890148
:1006A00001C08081FF91EF919F918F912F910F90C9
:1006B0000FBE0F901F9018951F920F920FB60F92BA
:1006C00011242F933F938F939F93AF93BF93809168
:1006D0005F0190916001A0916101B0916201309140
:1006E0005E0123E0230F2D3720F40196A11DB11DDB
:1006F00005C026E8230F0296A11DB11D20935E01BF
:1007000080935F0190936001A0936101B0936201B7
:100710008091630190916401A0916501B09166019F
:100720000196A11DB11D8093630190936401A09374
:100730006501B0936601BF91AF919F918F913F91F9
:100740002F910F900FBE0F901F901895E0E7F1E0EA
:100750001382128288EE93E0A0E0B0E08483958358
:10076000A683B78384E091E09183808385EC90E059
:100770009587848784EC90E09787868780EC90E06B
:10078000918B808B81EC90E0938B828B82EC90E05C
:10079000958B848B86EC90E0978B868B118E128ED6
:1007A000138E148EEDE0F2E0168217821086118609
:1007B000128613861486158616861786108A118A65
:1007C000128A138A148A158A0895CF93DF9300D072
:1007D00000D0CDB7DEB7789484B5826084BD84B58F
:1007E000816084BD85B5826085BD85B5816085BD2C
:1007F00080916E00816080936E00109281008091E4
:10080000810082608093810080918100816080936B
:100810008100809180008160809380008091B10090
:1008200084608093B1008091B00081608093B000BB
:1008300080917A00846080937A0080917A0082604F
:1008400080937A0080917A00816080937A00809111
:100850007A00806880937A001092C1001092510251
:1008600010925202109253021092540210920F02F0
:1008700010921002109211021092120268EB7BE0AB
:1008800080E090E00E947B0280E791E0909350022C
:1008900080934F020E9487000E946F0260930F02B4
:1008A00070931002809311029093120262E171E042
:1008B00080914F02909150020E9402036AE070E022
:1008C00080E090E00E947B0281E080932302E6EAD0
:1008D000F0E02491E2E9F0E08491882399F090E03F
:1008E000880F991FFC01EA57FF4FA591B491FC01B5
:1008F000E458FF4F859194918FB7F894EC91E22BD7
:10090000EC938FBF60E082E00E94C40168EE73E068
:1009100080E090E00E9435020E94870081E0809391
:1009200067013324339407E418EC0E946F02672BAD
:10093000682B692B41F40E946F02623071058105BA
:10094000910508F40FC10E946F0260936C017093CF
:100950006D0180936E0190936F01C0906801D090FB
:100960006901E0906A01F0906B016C157D058E05C0
:100970009F0540F4609368017093690180936A0158
:1009800090936B01C0906801D0906901E0906A017A
:10099000F0906B019B01AC012C193D094E095F09D8
:1009A00069017A013AEFC316D104E104F10408F4B5
:1009B000D9C0609368017093690180936A01909334
:1009C0006B0184EF91E0A0E0B0E080931B02909374
:1009D0001C02A0931D02B0931E0210921F021092DF
:1009E0002002109221021092220280911302909113
:1009F0001402A0911502B0911602809317029093F1
:100A00001802A0931902B0931A020E946F02609319
:100A100013027093140280931502909316020E94A1
:100A20006F0260930F0270931002809311029093F3
:100A300012020E946F026B017C0164E271E08091FE
:100A40004F02909150020E9402032AE041E050E0E0
:100A500060E070E080914F02909150020E94B902D4
:100A60006BE271E080914F02909150020E9402036C
:100A70002AE0B701A60180914F02909150020E9496
:100A8000B9026DE271E080914F02909150020E9494
:100A900002038091130290911402A0911502B0916B
:100AA0001602B701A601481B590B6A0B7B0B2AE003
:100AB00080914F02909150020E94B9026DE271E064
:100AC00080914F02909150020E94020340911302C4
:100AD00050911402609115027091160280911702D4
:100AE00090911802A0911902B0911A02481B590B5B
:100AF0006A0B7B0B2AE080914F02909150020E947A
:100B0000B9026FE271E080914F02909150020E9411
:100B100002030E946F02AB01BC012AE080914F02E8
:100B2000909150020E94B902E0904F02F090500262
:100B300061E371E0C7010E94A40261E271E0C701B4
:100B40000E94A40265E070E080E090E00E947B02D9
:100B50000E946F0260931302709314028093150237
:100B6000909316023092670161E082E00E94C40116
:100B700062E370E080E090E00E94350200937C0028
:100B800080917A00806480937A0080917A0086FD5B
:100B9000FCCFE090780080917900F12CF82A60E099
:100BA00082E00E94C401AFEFB3E0AE19BF097D013E
:100BB00068E371E080E791E00E940203A7010F2C37
:100BC000000C660B770BF7FE12C08DE249835A8347
:100BD0006B837C830E94AF0049815A816B817C8149
:100BE00070956095509541955F4F6F4F7F4F2AE00C
:100BF00080E791E00E94B90261E271E080E791E054
:100C00000E94A40210937C0080917A0080688093F7
:100C10007A0064E170E080E090E00E94350280910B
:100C20007A00806480937A0080917A0086FDFCCF00
:100C3000609178007091790080E090E00E94E90670
:100C40002EEA37E242EA53E40E942A0826EF38E20D
:100C50004CE95FE30E9497086B017C014B015C014A
:100C600064E471E080E791E00E940203A70196012D
:100C7000C701B6010E943D09882319F061E571E0C2
:100C80001AC026013701E89477F82FEF3FEF4FE7BE
:100C90005FE7C301B2010E943D09811111C02FEF2E
:100CA0003FEF4FE75FE7C301B2010E94E406181669
:100CB0003CF465E571E080E791E00E94A4027BC00E
:100CC0002FEF3FEF4FE75FE4C701B6010E943809FD
:100CD00018161CF469E571E0EECF2FEF3FEF4FE7F8
:100CE0005FECC701B6010E94E40687FDF3CF20E068
:100CF00030E0A901C701B6010E94E40687FF09C0E0
:100D00008DE20E94AF0046015701B7FAB094B7F8E0
:100D1000B0942AE037ED43EA5BE3C501B4010E94D9
:100D20002B084B015C010E9409096B017C010E94A8
:100D3000E9069B01AC01C501B4010E942A084B01E0
:100D40005C012AE0B701A60180E791E00E94B902A8
:100D50008EE20E94AF0020E030E040E251E4C501A5
:100D6000B4010E944A076B017C010E9409094B01F2
:100D7000A12CB12C2AE0B501A40180E791E00E94EA
:100D8000B902C501B4010E94E9069B01AC01C7018B
:100D9000B6010E942A0820E030E040E251E40E94BF
:100DA0004A070E940909AB0160E070E02AE080E791
:100DB00091E00E94B90261E271E080E791E00E9457
:100DC000A4020E94BA01B1CD0E94260708F481E076
:100DD0000895E89409C097FB3EF49095809570952E
:100DE00061957F4F8F4F9F4F9923A9F0F92F96E977
:100DF000BB279395F695879577956795B795F111EC
:100E0000F8CFFAF4BB0F11F460FF1BC06F5F7F4F88
:100E10008F4F9F4F16C0882311F096E911C077239A
:100E200021F09EE8872F762F05C0662371F096E8A3
:100E3000862F70E060E02AF09A95660F771F881F72
:100E4000DAF7880F9695879597F90895990F000816
:100E5000550FAA0BE0E8FEEF16161706E807F9078C
:100E6000C0F012161306E407F50798F0621B730B27
:100E7000840B950B39F40A2661F0232B242B252BA8
:100E800021F408950A2609F4A140A6958FEF811D4B
:100E9000811D08950E945D070C94CE070E94C00733
:100EA00038F00E94C70720F0952311F00C94B70783
:100EB0000C94BD0711240C9402080E94DF0770F304
:100EC000959FC1F3950F50E0551F629FF001729FEF
:100ED000BB27F00DB11D639FAA27F00DB11DAA1FFE
:100EE000649F6627B00DA11D661F829F2227B00D4B
:100EF000A11D621F739FB00DA11D621F839FA00DD6
:100F0000611D221F749F3327A00D611D231F849F25
:100F1000600D211D822F762F6A2F11249F5750407C
:100F20009AF0F1F088234AF0EE0FFF1FBB1F661FF7
:100F3000771F881F91505040A9F79E3F510580F0C0
:100F40000C94B7070C9402085F3FE4F3983ED4F387
:100F5000869577956795B795F795E7959F5FC1F764
:100F6000FE2B880F911D9695879597F9089597F90F
:100F70009F6780E870E060E008959FEF80EC08953F
:100F800000240A9416161706180609060895002468
:100F90000A9412161306140605060895092E0394E2
:100FA000000C11F4882352F0BB0F40F4BF2B11F456
:100FB00060FF04C06F5F7F4F8F4F9F4F089557FDB5
:100FC0009058440F551F59F05F3F71F04795880FB7
:100FD00097FB991F61F09F3F79F08795089512164E
:100FE00013061406551FF2CF4695F1DF08C01616FA
:100FF00017061806991FF1CF8695710561050894AB
:101000000895E894BB2766277727CB0197F90895C1
:10101000A1E21A2EAA1BBB1BFD010DC0AA1FBB1FFC
:10102000EE1FFF1FA217B307E407F50720F0A21B6E
:10103000B30BE40BF50B661F771F881F991F1A94DB
:1010400069F760957095809590959B01AC01BD0105
:10105000CF0108955058BB27AA270E9442080C943C
:10106000CE070E94C00738F00E94C70720F039F46D
:101070009F3F19F426F40C94BD070EF4E095E7FBAE
:101080000C94B707E92F0E94DF0758F3BA176207DD
:1010900073078407950720F079F4A6F50C940108EE
:1010A0000EF4E0950B2EBA2FA02D0B01B901900183
:1010B0000C01CA01A0011124FF27591B99F0593FC7
:1010C00050F4503E68F11A16F040A22F232F342F0F
:1010D0004427585FF3CF469537952795A795F0405D
:1010E0005395C9F77EF41F16BA0B620B730B840B72
:1010F000BAF09150A1F0FF0FBB1F661F771F881F2A
:10110000C2F70EC0BA0F621F731F841F48F4879581
:1011100077956795B795F7959E3F08F0B0CF939573
:10112000880F08F09927EE0F9795879508950E94EC
:10113000AB080C94CE070E94C70758F00E94C00766
:1011400040F029F45F3F29F00C94B70751110C943B
:1011500002080C94BD070E94DF0768F39923B1F3DE
:10116000552391F3951B550BBB27AA2762177307CD
:10117000840738F09F5F5F4F220F331F441FAA1F61
:10118000A9F335D00E2E3AF0E0E832D0915050401D
:10119000E695001CCAF72BD0FE2F29D0660F771FCB
:1011A000881FBB1F261737074807AB07B0E809F0B1
:1011B000BB0B802DBF01FF2793585F4F3AF09E3F36
:1011C000510578F00C94B7070C9402085F3FE4F3E4
:1011D000983ED4F3869577956795B795F7959F5F79
:1011E000C9F7880F911D9695879597F90895E1E0C5
:1011F000660F771F881FBB1F621773078407BA0724
:1012000020F0621B730B840BBA0BEE1F88F7E0957E
:1012100008950E94E70788F09F5798F0B92F992703
:10122000B751B0F0E1F0660F771F881F991F1AF0D1
:10123000BA95C9F714C0B13091F00E940108B1E02D
:1012400008950C940108672F782F8827B85F39F02C
:10125000B93FCCF3869577956795B395D9F73EF46A
:1012600090958095709561957F4F8F4F9F4F089512
:101270000E94260708F48FEF08950E942607880B26
:10128000990B0895EE0FFF1F0590F491E02D09943E
:0E12900081E090E0F8940C944D09F894FFCFA3
:10129E00000000005101BA00E90098011A01F8009F
:1012AE000C01564D4450565F317C315F564D4450C3
:1012BE00560D0A00564D4450455F003A323A007CB6
:1012CE00005F564D4450450056616C75652069733C
:1012DE00203A2000436F72652074656D70203A20AD
:0E12EE00006E616E00696E66006F766600002D
:107800000C94343C0C94513C0C94513C0C94513CE1
:107810000C94513C0C94513C0C94513C0C94513CB4
:107820000C94513C0C94513C0C94513C0C94513CA4
:107830000C94513C0C94513C0C94513C0C94513C94
:107840000C94513C0C94513C0C94513C0C94513C84
:107850000C94513C0C94513C0C94513C0C94513C74
:107860000C94513C0C94513C11241FBECFEFD8E036
:10787000DEBFCDBF11E0A0E0B1E0ECE9FFE702C060
:1078800005900D92A230B107D9F712E0A2E0B1E065
:1078900001C01D92AD30B107E1F70E942D3D0C945F
:1078A000CC3F0C94003C982F959595959595959582
:1078B000905D8F708A307CF0282F295A8091C0000B
:1078C00085FFFCCF9093C6008091C00085FFFCCF60
:1078D0002093C6000895282F205DF0CF982F809127
:1078E000C00085FFFCCF9093C6000895EF92FF92F1
:1078F0000F931F93EE24FF2487018091C00087FD22
:1079000017C00894E11CF11C011D111D81E4E8164B
:1079100082E4F8068FE0080780E0180770F3E09132
:107920000401F091050109958091C00087FFE9CF1E
:107930008091C6001F910F91FF90EF9008950E94D3
:10794000763C982F8091C00085FFFCCF9093C600B5
:1079500091362CF490330CF09053892F089597555D
:10796000892F08951F930E949F3C182F0E949F3CCF
:107970001295107F810F1F9108951F93182F882350
:1079800021F00E94763C1150E1F71F9108951F935A
:10799000182F0E94763C803249F0809103018F5F5E
:1079A000809303018530C1F01F9108958091C0003C
:1079B00085FFFCCF84E18093C6008091C00085FFE5
:1079C000FCCF1093C6008091C00085FFFCCF80E102
:1079D0008093C6001F910895E0910401F091050184
:1079E00009951F9108950E94763C803241F0809164
:1079F00003018F5F80930301853081F008958091AA
:107A0000C00085FFFCCF84E18093C6008091C00058
:107A100085FFFCCF80E18093C6000895E0910401CA
:107A2000F09105010995089540E951E08823A1F0FE
:107A30002D9A28EE33E0FA013197F1F721503040CA
:107A4000D1F72D9828EE33E0FA013197F1F7215064
:107A50003040D1F7815061F708953F924F925F9285
:107A60006F927F928F929F92AF92BF92CF92DF924E
:107A7000EF92FF920F931F93CF93DF93000080E16B
:107A80008093C4001092C50088E18093C10086E015
:107A90008093C2005098589A259A81E00E94143D24
:107AA00024E1F22E9EE1E92E85E9D82E0FE0C02ECA
:107AB00010E1B12EAA24A394B1E49B2EA6E58A2E50
:107AC000F2E57F2EE0E26E2E79E4572E63E5462E36
:107AD00050E5352E0E94763C8033B1F18133B9F107
:107AE000803409F46FC0813409F476C0823409F41B
:107AF00085C0853409F488C0803531F1823521F1A3
:107B0000813511F1853509F485C0863509F48DC0BC
:107B1000843609F496C0843709F403C1853709F423
:107B200072C1863709F466C0809103018F5F80932C
:107B30000301853079F6E0910401F0910501099582
:107B40000E94763C803351F60E94F33CC3CF0E94E2
:107B5000763C803249F78091C00085FFFCCFF092DF
:107B6000C6008091C00085FFFCCF9092C600809136
:107B7000C00085FFFCCF8092C6008091C00085FFC9
:107B8000FCCF7092C6008091C00085FFFCCF609250
:107B9000C6008091C00085FFFCCF5092C600809146
:107BA000C00085FFFCCF4092C6008091C00085FFD9
:107BB000FCCF3092C6008091C00085FFFCCFB09210
:107BC000C60088CF0E94763C863808F4BDCF0E945C
:107BD000763C0E94F33C7ECF0E94763C803809F4CC
:107BE0009CC0813809F40BC1823809F43CC1883942
:107BF00009F48FC080E00E94C73C6CCF84E10E94F2
:107C0000BD3C0E94F33C66CF85E00E94BD3C0E94D3
:107C1000F33C60CF0E94763C809306010E94763C44
:107C2000809307010E94F33C55CF0E94763C80333D
:107C300009F41DC183E00E94BD3C80E00E94C73C66
:107C400049CF0E94763C809309020E94763C809343
:107C5000080280910C028E7F80930C020E94763C79
:107C6000853409F415C18091080290910902892B8D
:107C700089F000E010E00E94763CF801E85FFE4FDA
:107C800080830F5F1F4F80910802909109020817AF
:107C9000190788F30E94763C803209F045CF809125
:107CA0000C0280FF01C16091060170910701660F0F
:107CB000771F7093070160930601A0910802B091AD
:107CC00009021097C9F0E8E0F1E09B01AD014E0F09
:107CD0005F1FF999FECF32BD21BD819180BDFA9A17
:107CE000F99A2F5F3F4FE417F50799F76A0F7B1F4B
:107CF00070930701609306018091C00085FFFCCF5F
:107D0000F092C6008091C00085FFFCCFB092C60003
:107D1000E1CE83E00E94C73CDDCE82E00E94C73CFA
:107D2000D9CE0E94763C809309020E94763C8093D3
:107D300008028091060190910701880F991F909386
:107D40000701809306010E94763C853409F4A6C0A1
:107D500080910C028E7F80930C020E94763C8032D0
:107D600009F0B8CE8091C00085FFFCCFF092C6002C
:107D7000609108027091090261157105B9F140E046
:107D800050E080910C02A82FA170B82FB27011C0E2
:107D9000BB2309F45CC0E0910601F0910701319624
:107DA000F0930701E09306014F5F5F4F46175707B7
:107DB000E8F4AA2369F3F999FECF209106013091E6
:107DC000070132BD21BDF89A90B58091C00085FFB2
:107DD000FCCF9093C6002F5F3F4F30930701209355
:107DE00006014F5F5F4F4617570718F38091C00099
:107DF00085FDE5CE8091C00085FFF8CFE0CE81E023
:107E00000E94C73C67CE0E94763C803209F08CCE3F
:107E10008091C00085FFFCCFF092C6008091C00029
:107E200085FFFCCFE092C6008091C00085FFFCCFAB
:107E3000D092C6008091C00085FFFCCFC092C600E2
:107E40008091C00085FFFCCFB092C60043CEE09188
:107E50000601F091070194918091C00085FFFCCF4D
:107E60009093C6009CCF80E10E94C73C33CE0E9415
:107E7000763C0E94763C182F0E94763C112309F430
:107E800083C0113009F484C08FE00E94C73C22CE29
:107E900080910C02816080930C02E5CE80910C02EF
:107EA000816080930C0259CF809107018823880F4D
:107EB000880B8A2180930B02809106019091070123
:107EC000880F991F90930701809306018091080203
:107ED00080FF09C080910802909109020196909359
:107EE000090280930802F894F999FECF1127E091D6
:107EF0000601F0910701C8E0D1E08091080290915D
:107F00000902103091F40091570001700130D9F34B
:107F100003E000935700E89500915700017001308D
:107F2000D9F301E100935700E89509901990009169
:107F3000570001700130D9F301E000935700E89534
:107F40001395103498F011270091570001700130FB
:107F5000D9F305E000935700E895009157000170B0
:107F60000130D9F301E100935700E895329602976A
:107F700009F0C7CF103011F00296E5CF112480919F
:107F8000C00085FFB9CEBCCE8EE10E94C73CA2CD19
:0C7F900085E90E94C73C9ECDF894FFCF0D
:027F9C00800063
:040000030000780081
:00000001FF