:100000000C942A010C9452010C9452010C9452014C
:100010000C9452010C9452010C9452010C94520114
:100020000C9452010C949E030C9452010C945201B6
:100030000C9452010C9452010C9452010C945201F4
:100040000C944D030C9452010C948A020C9464029B
:100050000C9452010C9452010C9452010C945201D4
:100060000C9452010C94520150415F4D4158005084
:10007000415F484947480050415F4C4F570050414D
:100080005F4D494E0031362062697473003820623A
:100090006974730044697361626C6564006E5246F2
:1000A00032344C30312B006E524632344C303100F9
:1000B0003235304B42505300324D42505300314D97
:1000C0004250530000000008000201000003040732
:1000D000000000000000000053544154555309092A
:1000E000203D203078253032782052585F44523DF0
:1000F00025782054585F44533D2578204D41585F62
:1001000052543D25782052585F505F4E4F3D257820
:100110002054585F46554C4C3D25780D0A005041FF
:1001200020506F77657209203D2025530D0A007E0F
:100130000077006F006800435243204C656E67747F
:100140006809203D2025530D0A0094008D0085008C
:100150004D6F64656C0909203D2025530D0A00A7E9
:10016000009D0044617461205261746509203D2046
:1001700025530D0A00BE00B800B00044594E50444B
:100180002F4645415455524500434F4E4649470975
:100190000052465F53455455500052465F4348094C
:1001A00000454E5F52584144445200454E5F414124
:1001B000090052585F50575F50302D360054585F39
:1001C00041444452090052585F414444525F503206
:1001D0002D350052585F414444525F50302D31005C
:1001E0001112131415160A0B0C0D0E0F000000004F
:1001F000250028002B0000000000240027002A0012
:1002000004040404040404040202020202020303BC
:1002100003030303010204081020408001020408C4
:1002200010200102040810200D0A00253032780049
:1002300020307800255309203D000D0A0020307839
:100240002530327800255309203D000001020304C7
:1002500005001D0B11241FBECFEFD8E0DEBFCDBFC0
:1002600011E0A0E0B1E0E0E2F4E202C005900D92FE
:10027000AA36B107D9F722E0AAE6B1E001C01D9283
:10028000AF38B207E1F711E0CAE2D1E004C021972C
:10029000FE010E94E011C932D107C9F70E9442084D
:1002A0000C940E120C940000089580E090E00895E4
:1002B000FC01538D448D252F30E0842F90E0821B6C
:1002C000930B541710F0CF96089501970895FC01F1
:1002D000918D828D981761F0828DDF01A80FB11D7D
:1002E0005D968C91928D9F5F9F73928F90E00895A1
:1002F0008FEF9FEF0895FC01918D828D981731F05B
:10030000828DE80FF11D858D90E008958FEF9FEFAE
:100310000895FC01918D228D892F90E0805C9F4F84
:10032000821B91098F739927089586E891E00E94B6
:10033000890121E0892B09F420E0822F0895FC0136
:10034000848DDF01A80FB11DA35ABF4F2C91848D5E
:1003500090E001968F739927848FA689B7892C9393
:10036000A089B1898C9180648C93938D848D98132E
:1003700006C00288F389E02D80818F7D80830895F7
:10038000EF92FF920F931F93CF93DF93EC0181E0E5
:10039000888F9B8D8C8D981305C0E889F9898081A1
:1003A00085FD24C0F62E0B8D10E00F5F1F4F0F73DD
:1003B0001127E02E8C8DE8120CC00FB607FCFACF87
:1003C000E889F989808185FFF5CFCE010E949F01E0
:1003D000F1CF8B8DFE01E80FF11DE35AFF4FF08244
:1003E0000B8FEA89FB898081806207C0EE89FF89D3
:1003F0006083E889F98980818064808381E090E06E
:10040000DF91CF911F910F91FF90EF900895CF93BF
:10041000DF93EC01888D8823C9F0EA89FB8980810C
:1004200085FD05C0A889B9898C9186FD0FC00FB6DE
:1004300007FCF5CF808185FFF2CFA889B9898C911F
:1004400085FFEDCFCE010E949F01E7CFDF91CF91D5
:10045000089580E090E0892B29F00E949501811198
:100460000C94000008953FB7F89480916F0190912B
:100470007001A0917101B091720126B5A89B05C0D1
:100480002F3F19F00196A11DB11D3FBFBA2FA92F13
:10049000982F8827820F911DA11DB11DBC01CD0190
:1004A00042E0660F771F881F991F4A95D1F708957C
:1004B000CF93C82F682F86E891E00E94C0018C2F4F
:1004C000CC0F990BCF9108951F920F920FB60F92F8
:1004D00011242F933F934F935F936F937F938F9349
:1004E0009F93AF93BF93EF93FF9386E891E00E94B1
:1004F0009F01FF91EF91BF91AF919F918F917F915C
:100500006F915F914F913F912F910F900FBE0F9080
:100510001F9018951F920F920FB60F9211242F93D0
:100520008F939F93EF93FF93E0919601F091970142
:100530008081E0919C01F0919D0182FD12C090812B
:1005400080919F018F5F8F732091A001821751F0DE
:10055000E0919F01F0E0EA57FE4F958F80939F0155
:1005600001C08081FF91EF919F918F912F910F900A
:100570000FBE0F901F90189590E0FC01EC53FF4FB9
:100580003491FC01EC5EFD4F2491FC01E050FE4FE4
:10059000E491EE2309F43BC0332339F1333091F079
:1005A00038F43130A9F0323001F584B58F7D12C0B6
:1005B000373091F03830A1F03430B9F480918000B8
:1005C0008F7D03C0809180008F77809380000DC065
:1005D00084B58F7784BD09C08091B0008F7703C048
:1005E0008091B0008F7D8093B000F0E0EE0FFF1F90
:1005F000E451FE4FA591B4918FB7F894EC9161113D
:1006000003C020952E2301C02E2B2C938FBF08955D
:100610008230910538F0880F991F880F991F059730
:100620000197F1F708958F929F92AF92BF92CF9268
:10063000DF92EF92FF926B017C010E9433024B012B
:100640005C01C114D104E104F104F1F00E94330211
:10065000DC01CB0188199909AA09BB09883E93409E
:10066000A105B10570F321E0C21AD108E108F10833
:1006700088EE880E83E0981EA11CB11CC114D10421
:10068000E104F10419F7DDCFFF90EF90DF90CF90F8
:10069000BF90AF909F908F9008951F920F920FB6CA
:1006A0000F9211242F933F938F939F93AF93BF93F8
:1006B0008091820190918301A0918401B091850184
:1006C00030916E0123E0230F2D3720F40196A11DF8
:1006D000B11D05C026E8230F0296A11DB11D209370
:1006E0006E018093820190938301A0938401B09363
:1006F000850180916F0190917001A0917101B0917D
:1007000072010196A11DB11D80936F01909370013C
:10071000A0937101B0937201BF91AF919F918F919E
:100720003F912F910F900FBE0F901F9018958EBD87
:1007300000000DB407FEFDCF8EB508951F920F92F5
:100740000FB60F9211242F933F934F935F936F93A4
:100750007F938F939F93AF93BF93EF93FF9380917A
:100760007A0190917B018093B20080917D019091FC
:100770007E01A0917F01B09180010196A11DB11D64
:1007800080937D0190937E01A0937F01B0938001BF
:1007900040917D0150917E0160917F0170918001B7
:1007A0008091760190917701A0917801B0917901C3
:1007B000481759076A077B07B0F080917C018111C7
:1007C00012C081E080937C0110927D0110927E0125
:1007D00010927F0110928001E0917401F0917501F7
:1007E000099510927C01FF91EF91BF91AF919F917C
:1007F0008F917F916F915F914F913F912F910F90CA
:100800000FBE0F901F90189560E070E088E592E0B1
:100810000C94760BCF92DF92EF92FF920F931F937F
:10082000CF93DF93CDB7DEB7A4970FB6F894DEBFB2
:100830000FBECDBF80916C0190916D010196909398
:100840006D0180936C01CC9709F058C010926D0136
:1008500010926C0188EC80937C0080917A00806813
:1008600080937A0064E170E080E090E00E941303DE
:1008700080917A00806480937A0080917A0086FD6E
:10088000FCCF00917800109179000E940404B80117
:1008900080E090E00E94B50F2EEA37E242EA53E48E
:1008A0000E949E1026EF38E24CE95FE30E940B1194
:1008B0009F938F937F936F931F9281E08F938AE230
:1008C00091E09F938F938FE291E09F938F93CE015E
:1008D00001969F938F930E94EB116AE371E086E883
:1008E00091E00E942D0867E271E086E891E00E94A5
:1008F0002D080FB6F894DEBF0FBECDBF61E082E0D9
:100900000E94BC0262E370E080E090E00E9413036A
:1009100087E480937C0080917A00806480937A00E1
:1009200080917A0086FDFCCF00917800809179005B
:1009300010E0182B60E082E00E94BC028FEF93E091
:10094000801B910B67E070E00E94B811072E000C2D
:10095000880B990B0E94B70F6B017C0120E030E0FF
:1009600048EC52E40E94B311181634F4C12CD12C77
:1009700088ECE82E82E4F82EC701B6010E947D11B2
:1009800020916A0130916B012617370709F4A9C03D
:1009900070936B0160936A0169A37AA38BA39CA3F4
:1009A0000E94040469A17AA1072E000C880B990B00
:1009B0000E94B70F9F938F937F936F931F9281E055
:1009C0008F9380E591E09F938F938FE291E09F93C7
:1009D0008F93CE0101967C019F938F930E94EB1120
:1009E00089E00E94CD050FB6F894DEBF0FBECDBFE3
:1009F00080FD6BC080E00E94170680917B02909181
:100A00007C020E9408038DE10E94CD0581FF08C091
:100A100080917B0290917C020E9408030E94140640
:100A200080E00E94CD05682F6E7F80E00E94E40583
:100A300082E00E94CD05EBE4F2E0E49161E070E039
:100A400001C0660FEA95EAF7682B82E00E94E40590
:100A5000F70101900020E9F7109172020E2F0E1994
:100A6000101708F4012F80917302811102C0101B2E
:100A700001C010E00E94CA0580EA0E9497030E0D93
:100A80000E1531F0F70181917F010E949703F8CF95
:100A9000112329F080E00E9497031150F9CF0E94A2
:100AA000C70581E00E9417068FEF0E940106807340
:100AB000D9F380E00E94170660E787E00E94E40512
:100AC00084FD0E9414060E94680665E571E086E8D0
:100AD00091E00E942D0867E271E086E891E00E94B3
:100AE0002D08A4960FB6F894DEBF0FBECDBFDF91E0
:100AF000CF911F910F91FF90EF90DF90CF900895CD
:100B0000CF92DF92EF92FF920F931F93CF93DF93D9
:100B10006C017A018B01C0E0D0E0CE15DF0589F0D1
:100B2000D8016D918D01D601ED91FC910190F0817C
:100B3000E02DC6010995892B11F47E0102C0219692
:100B4000ECCFC701DF91CF911F910F91FF90EF90F4
:100B5000DF90CF9008950E94E611CF93DF939CB56C
:100B60009F7D9CBD9CB5937F9CBD9CB59C7F9CBD8F
:100B70009DB591609DBDCBE6D2E0682F8A810E9431
:100B8000BC028C899D89DF91CF910C94080381E090
:100B90000C94AD0580E00C94AD05CF93DF931F92CC
:100BA000CDB7DEB789830E94CA0589818F710E9403
:100BB00097038FEF0E94970389830E94C70589815D
:100BC0000F90DF91CF9108951F93CF93DF9300D0C3
:100BD000CDB7DEB76A8389830E94CA0589818F7188
:100BE00080620E949703182F6A81862F0E949703C4
:100BF0000E94C705812F0F900F90DF91CF911F9119
:100C00000895CF93DF931F92CDB7DEB789830E94FB
:100C1000CA0589810E94970389830E94C70589813B
:100C20000F90DF91CF91089581EE0C9401062091F1
:100C30006B0230916C0240916D0250916E0224174C
:100C4000350721F0682F822F0C94BC020895EF9293
:100C5000FF920F931F93CF93DF9300D01F92CDB7D6
:100C6000DEB7162F4A837B8389830E94CA05898158
:100C70008F7180620E949703082FE12E7B81F72EEF
:100C80004A81140F1E1531F0F70181917F010E94F6
:100C90009703F8CF0E94C705802F0F900F900F90F9
:100CA000DF91CF911F910F91FF90EF90089580E019
:100CB0000E94CD0581FD0BC0682F626080E00E941C
:100CC000E40565E070E080E090E00C941303089583
:100CD0000E94570680E00E94CD05682F616080E089
:100CE0000E94E40560E787E00E94E40581E00E943D
:100CF000170680917402882341F04091790264E7DD
:100D000072E08AE00E94270612C082E00E94CD05B0
:100D1000EBE4F2E0E49121E030E001C0220FEA953B
:100D2000EAF72095622F682382E00E94E4058DE1B6
:100D30000E94CD0581FD0C9414060895EF92FF9258
:100D40000F931F93CF93DF931F92CDB7DEB7E42E9F
:100D50009F938F9385E492E09F938F9369830E9482
:100D6000C10B6981E60E0F900F900F900F900DE36D
:100D700012E06E1591F0FF24F394F60E862F0E9478
:100D8000CD051F928F931F930F930E94C10B0F905D
:100D90000F900F900F906F2DECCF8AE392E09F930E
:100DA0008F930E94C10B0F900F900F90DF91CF9106
:100DB0001F910F91FF90EF9008952F923F924F92C5
:100DC0005F926F927F928F929F92AF92BF92CF92DB
:100DD000DF92EF92FF920F931F93CF93DF931F92B7
:100DE000CDB7DEB7562E342E6DB67EB69F938F9359
:100DF00084E392E09F938F930E94C10B350C0F9078
:100E00000F900F900F9080E3C82E82E0D82E9BE2C7
:100E1000A92E92E0B92E531409F44EC08DB69EB699
:100E200090917902092F10E02DB73EB7201B310BAE
:100E30000FB6F8943EBF0FBE2DBFEDB7FEB731968B
:100E40007F0122242394250C99830E94CA05852DB5
:100E50008F710E949703270199819E0D941549F087
:100E60008FEF99830E949703F20181932F0199815B
:100E7000F5CF0E94C705DF92CF920E94C10B0E0DE5
:100E80001F1D0F900F90015011090E151F0568F0DE
:100E9000F80180811F928F93BF92AF920E94C10B85
:100EA0000F900F900F900F90EECF0FB6F8949EBE5C
:100EB0000FBE8DBE522CAFCF88E292E09F938F93EE
:100EC0000E94C10B0F900F900FB6F8947EBE0FBE1C
:100ED0006DBE0F90DF91CF911F910F91FF90EF901A
:100EE000DF90CF90BF90AF909F908F907F906F904A
:100EF0005F904F903F902F9008950F931F93CF9343
:100F00008C0186E00E94CD05C82FC77D02301105F7
:100F100031F4C0628BE990E0A0E0B0E00DC0013098
:100F2000110529F085E590E0A0E0B0E005C0C860BB
:100F300081E490E0A0E0B0E080937B0290937C029B
:100F4000A0937D02B0937E026C2F86E00E94E405A0
:100F500086E00E94CD0591E08C1390E0892FCF911F
:100F60001F910F91089590E0FC01EC5EFD4F2491DC
:100F7000FC01E050FE4F8491882399F090E0880FA7
:100F8000991FFC01EA50FE4FA591B491FC01E45178
:100F9000FE4F859194918FB7F894EC91E22BEC93EE
:100FA0008FBF0895E6E8F1E0A089B18982E08C93D3
:100FB000A485B5851C92A685B78580E18C93108E9B
:100FC000A489B58986E08C93A289B3898C918061CC
:100FD0008C93A289B3898C9188608C93A289B38900
:100FE0008C9180688C930288F389E02D80818F7DBD
:100FF00080830895CF92DF92EF92FF920F931F9319
:101000002FB7F894C0908201D0908301E0908401C2
:10101000F09085012FBFDC01CB018C0D9D1DAE1D15
:10102000BF1D4FB7F8940091820110918301209168
:101030008401309185014FBF0C151D052E053F051C
:1010400028F080179107A207B30758F71F910F9157
:10105000FF90EF90DF90CF9008956115710579F0C2
:10106000FB0101900020E9F73197AF01461B570BB8
:10107000DC01ED91FC910280F381E02D099480E088
:1010800090E00895CF93DF93CDB7DEB760970FB6AA
:10109000F894DEBF0FBECDBF789484B5826084BD66
:1010A00084B5816084BD85B5826085BD85B581606C
:1010B00085BD80916E00816080936E0010928100EA
:1010C00080918100826080938100809181008160A5
:1010D0008093810080918000816080938000809166
:1010E000B10084608093B1008091B00081608093F2
:1010F000B00080917A00846080937A0080917A00B9
:10110000826080937A0080917A00816080937A0077
:1011100080917A00806880937A001092C1001092CA
:101120006702109268021092690210926A0210928D
:10113000250210922602109227021092280268EBD4
:101140007BE080E090E00E94FA0786E891E09093CF
:101150006602809365020E94D2072FB7F8948091AF
:10116000820190918301A0918401B09185012FBFEC
:101170008093250290932602A0932702B093280221
:1011800068E171E080916502909166020E942D08ED
:101190006AE070E080E090E00E94FA0711E01093AE
:1011A000390282E00E94B30760E082E00E94BC0244
:1011B00068EE73E080E090E00E9413030E94D20783
:1011C000109381010E94040480916B0290916C0243
:1011D00020916D0230916E028217930711F00E94E8
:1011E000B30780916D0290916E0220916B02309155
:1011F0006C022817390711F00E94B3071FB7F89443
:1012000080917301811124C0EAE0F2E08491EEE163
:10121000F2E09491E82FF0E0EE0FFF1FEA50FE4F4E
:10122000A591B491EC91E92321F461E08AE00E9458
:10123000BC028AE00E94B3078CB580618CBD8CB57E
:1012400080648CBD8DE00E94B3078BE00E94B307E1
:10125000809173018F5F809373011FBF80E00E94B4
:10126000170681E00E94AD0565E070E080E090E047
:101270000E9413036CE080E00E94E4056FE584E0C7
:101280000E94E40582E090E00E947D07882319F027
:1012900081E08093710286E00E94CD0580E090E0BD
:1012A0000E947D070E94CA0580E50E94970383E79C
:1012B0000E9497030E94C70560E08DE10E94E4054B
:1012C00060E08CE10E94E4051092730260E787E021
:1012D0000E94E4056CE485E00E94E40582EE0E9431
:1012E00001060E9414060E94570680E00E94CD0568
:1012F000682F6E7F80E00E94E4058DE10E94CD059D
:10130000682F64608DE10E94E4058CE10E94CD05A8
:10131000682F6F638CE10E94E40511E01093730263
:1013200081E090E00E947D0786E00E94CD05682F55
:10133000676086E00E94E4056AE285E00E94E405B9
:1013400063E184E00E94E405198780EF8A878B8738
:101350008C878D871E861F86188A40917902BE0170
:10136000675F7F4F8AE00E94270640917902BE01A5
:10137000675F7F4F80E10E9427066091720281E1E2
:101380000E94E40588EE89838A838B838C838D8316
:101390001E821F821886E7EEF1E084914091790267
:1013A000BE016F5F7F4F0E942706E1EEF1E084915E
:1013B000609172020E94E40582E00E94CD05ECE497
:1013C000F2E0E49161E070E001C0660FEA95EAF7AF
:1013D000682B82E00E94E4056FE381E00E94E4054F
:1013E0000E9468068FEF0E940106282F30E0982F98
:1013F00091701F929F9335952795277033273F93C0
:101400002F9384FB992790F91F929F9385FB99272F
:1014100090F91F929F9386FB992790F91F929F93B3
:101420001F928F9388ED90E09F938F930E94C10B42
:1014300042E06AE083ED91E00E94DD0644E06CE06A
:1014400086EC91E00E949E0641E060E18DEB91E028
:101450000E94DD0646E061E182EB91E00E949E067B
:1014600041E061E08BEA91E00E949E0641E062E08B
:1014700081EA91E00E949E0641E065E08AE991E000
:101480000E949E0641E066E081E991E00E949E068E
:1014900041E060E089E891E00E949E0642E06CE154
:1014A0008BE791E00E949E0686E00E94CD0588723F
:1014B0000FB6F894DEBF0FBECDBF803241F021E001
:1014C00090E0883009F020E0E22FF92F02C0E2E03E
:1014D000F0E0EE0FFF1FEB58FE4F859194919F9324
:1014E0008F9383E691E09F938F930E94C10BE091CD
:1014F0007102F0E0EE0FFF1FE15AFE4F85919491CB
:101500009F938F9380E591E09F938F930E94C10BEF
:1015100080E00E94CD05182F81E00E94CD050FB616
:10152000F894DEBF0FBECDBF13FD02C0882329F0A3
:1015300012FD06C0E1E0F0E005C0E0E0F0E002C02E
:10154000E2E0F0E0EE0FFF1FE65BFE4F8591949125
:101550009F938F9387E391E09F938F930E94C10B9A
:1015600086E00E94CD058670E82FF0E0E15DFE4F39
:10157000859194919F938F938EE191E09F938F93A8
:101580000E94C10B809170008E7F809370008091CB
:10159000B0008C7F8093B0008091B100877F8093F2
:1015A000B1008091B6008F7D8093B600809170006D
:1015B0008D7F809370008091B10084608093B10032
:1015C0008091B1008C7F8093B10086E090E0909391
:1015D0007B0180937A0188EE93E0A0E0B0E08093F5
:1015E000760190937701A0937801B09379018AE016
:1015F00094E0909375018093740110927D01109294
:101600007E0110927F011092800110927C018091E6
:101610007A0190917B018093B2008091700081608B
:10162000809370000FB6F894DEBF0FBECDBF11E0FF
:10163000109381010E942902FBCFE6E8F1E01382BA
:10164000128288EE93E0A0E0B0E084839583A683C5
:10165000B7838AE091E09183808385EC90E0958761
:10166000848784EC90E09787868780EC90E0918B6C
:10167000808B81EC90E0938B828B82EC90E0958B59
:10168000848B86EC90E0978B868B118E128E138E56
:10169000148EE3E2F2E0168217821086118612861B
:1016A00013861486158616861786108A118A128A62
:1016B000138A148A158AEBE6F2E086E090E09183C3
:1016C000808387E090E093838283168280E2878321
:1016D000108685E0868785E090E0A0E0B0E0848B0E
:1016E000958BA68BB78B11860C9404040F931F93D4
:1016F000CF93DF93009731F46115710519F480E001
:1017000090E03AC08B01EC016EE070E081E090E087
:101710000E94B90DFC01892B91F380E883830115A8
:10172000110571F01387028781E883838091850218
:1017300090918602892B21F4F0938602E093850232
:101740002097C9F0D187C08783818260838380918D
:10175000870290918802892B71F4F0938802E093BC
:1017600087028091890290918A02892B21F4F0935B
:101770008A02E0938902CF01DF91CF911F910F91EF
:101780000895A0E0B0E0E7ECFBE00C947510AE012A
:10179000495F5F4FDA016D917D91AD0105E812E07F
:1017A000F80182819381DC0113962C9113972860B4
:1017B00013962C930E94E70BD8011296ED91FC91A1
:1017C00013972381277F2383E4E00C949110ACE0EE
:1017D000B0E0EDEEFBE00C9467107C016B018A0138
:1017E000FC0117821682838181FFBDC1CE01019663
:1017F0004C01F7019381F60193FD859193FF81914F
:101800006F01882309F4ABC1853239F493FD8591CA
:1018100093FF81916F01853229F4B70190E00E9416
:101820001F0FE7CF512C312C20E02032A0F48B3257
:1018300069F030F4803259F0833269F420612CC0B1
:101840008D3239F0803339F4216026C02260246063
:1018500023C0286021C027FD27C030ED380F3A3063
:1018600078F426FF06C0FAE05F9E300D1124532E57
:1018700013C08AE0389E300D1124332E20620CC034
:101880008E3221F426FD6BC1206406C08C3611F423
:10189000206802C0883641F4F60193FD859193FFDC
:1018A00081916F018111C1CF982F9F7D9554933005
:1018B00028F40C5F1F4FFFE3F9830DC0833631F02E
:1018C000833771F0833509F05BC022C0F801808155
:1018D00089830E5F1F4F44244394512C540115C03B
:1018E0003801F2E06F0E711CF801A080B18026FF74
:1018F00003C0652D70E002C06FEF7FEFC5012C873C
:101900000E94140F2C0183012C852F77222E17C0E3
:101910003801F2E06F0E711CF801A080B18026FF43
:1019200003C0652D70E002C06FEF7FEFC5012C870B
:101930000E94020F2C012C852068222E830123FC9B
:101940001BC0832D90E048165906B0F4B70180E221
:1019500090E00E941F0F3A94F4CFF50127FC859187
:1019600027FE81915F01B70190E00E941F0F3110A7
:101970003A94F1E04F1A51084114510471F7E5C04F
:10198000843611F0893639F5F80127FF07C06081E8
:101990007181828193810C5F1F4F08C060817181CA
:1019A000072E000C880B990B0E5F1F4F2F76722E9F
:1019B00097FF09C090958095709561957F4F8F4FE7
:1019C0009F4F2068722E2AE030E0A4010E94570F3A
:1019D000A82EA81844C0853729F42F7EB22E2AE0FD
:1019E00030E025C0F22FF97FBF2E8F36C1F018F4FA
:1019F000883579F0B4C0803719F0883721F0AFC04E
:101A00002F2F2061B22EB4FE0DC08B2D8460B82E16
:101A100009C024FF0AC09F2F9660B92E06C028E097
:101A200030E005C020E130E002C020E132E0F80102
:101A3000B7FE07C060817181828193810C5F1F4F67
:101A400006C06081718180E090E00E5F1F4FA401AD
:101A50000E94570FA82EA818FB2DFF777F2E76FE29
:101A60000BC0372D3E7FA51450F474FE0AC072FCE3
:101A700008C0372D3E7E05C0BA2C372D03C0BA2CC6
:101A800001C0B52C34FF0DC0FE01EA0DF11D8081AF
:101A9000803311F4397E09C032FF06C0B394B39489
:101AA00004C0832F867809F0B39433FD13C030FF50
:101AB00006C05A2CB31418F4530C5B18B32CB3148F
:101AC00068F4B70180E290E03C870E941F0FB39456
:101AD0003C85F5CFB31410F43B1801C0312C34FF12
:101AE00012C0B70180E390E03C870E941F0F3C8545
:101AF00032FF17C031FD03C088E790E002C088E5DF
:101B000090E0B7010CC0832F867859F031FF02C0F6
:101B10008BE201C080E237FD8DE2B70190E00E94C8
:101B20001F0FA51438F4B70180E390E00E941F0F47
:101B30005A94F7CFAA94F401EA0DF11D8081B70100
:101B400090E00E941F0FA110F5CF332009F451CE71
:101B5000B70180E290E00E941F0F3A94F6CFF701A0
:101B60008681978102C08FEF9FEF2C96E2E10C9463
:101B700083100F931F93CF93DF93869F8001879FDE
:101B8000100D969F100D1124C8010E94D50DEC0177
:101B9000009729F0A80160E070E00E940D0FCE01CF
:101BA000DF91CF911F910F910895CF93DF938230F2
:101BB000910510F482E090E0E0918D02F0918E02A8
:101BC00020E030E0C0E0D0E0309711F14081518159
:101BD00048175907C0F04817590761F4828193816B
:101BE000209719F09B838A832BC090938E02809359
:101BF0008D0226C02115310519F04217530718F43C
:101C00009A01BE01DF01EF010280F381E02DDCCFFC
:101C10002115310509F1281B390B2430310590F4C9
:101C200012968D919C9113976115710521F0FB011E
:101C30009383828304C090938E0280938D02FD0172
:101C4000329644C0FD01E20FF31F8193919322501D
:101C500031092D933C933AC020918B0230918C0234
:101C6000232B41F4209102013091030130938C0227
:101C700020938B0220910001309101012115310543
:101C800041F42DB73EB74091040150910501241B4A
:101C9000350BE0918B02F0918C02E217F307A0F470
:101CA0002E1B3F0B2817390778F0AC014E5F5F4FB2
:101CB0002417350748F04E0F5F1F50938C02409356
:101CC0008B028193919302C0E0E0F0E0CF01DF91BD
:101CD000CF9108950F931F93CF93DF93009709F44B
:101CE0008CC0FC0132971382128200918D021091F8
:101CF0008E020115110581F420813181820F931F1D
:101D000020918B0230918C022817390779F5F093D6
:101D10008C02E0938B0271C0D80140E050E0AE1716
:101D2000BF0750F412962D913C911397AD012115E8
:101D3000310509F1D901F3CF9D01DA013383228303
:101D400060817181860F971F8217930769F4EC01F8
:101D500028813981260F371F2E5F3F4F3183208323
:101D60008A819B8193838283452B29F4F0938E0291
:101D7000E0938D0242C01396FC93EE931297ED010F
:101D8000499159919E01240F351FE217F30771F411
:101D900080819181840F951F029611969C938E935A
:101DA0008281938113969C938E931297E0E0F0E0EA
:101DB000D80112968D919C911397009719F0F80114
:101DC0008C01F6CF8D919C9198012E5F3F4F820F31
:101DD000931F20918B0230918C022817390769F4E8
:101DE000309729F410928E0210928D0202C0138255
:101DF000128210938C0200938B02DF91CF911F917E
:101E00000F910895FC010590615070400110D8F7C2
:101E1000809590958E0F9F1F0895DC0101C06D93F2
:101E200041505040E0F70895FC016150704001902E
:101E30000110D8F7809590958E0F9F1F08950F93EE
:101E40001F93CF93DF93FB01238121FD03C08FEF0D
:101E50009FEF28C022FF16C046815781248135811B
:101E60004217530744F4A081B1819D012F5F3F4F7A
:101E7000318320838C93268137812F5F3F4F3783B7
:101E8000268310C0EB01092F182F0084F185E02D67
:101E90000995892BE1F68E819F8101969F838E8320
:101EA000812F902FDF91CF911F910F910895FA010B
:101EB000AA27283051F1203181F1E8946F936E7F89
:101EC0006E5F7F4F8F4F9F4FAF4FB1E03ED0B4E07A
:101ED0003CD0670F781F891F9A1FA11D680F791FBB
:101EE0008A1F911DA11D6A0F711D811D911DA11DCC
:101EF00020D009F468943F912AE0269F11243019DC
:101F0000305D3193DEF6CF010895462F4770405D76
:101F10004193B3E00FD0C9F7F6CF462F4F70405D25
:101F20004A3318F0495D31FD4052419302D0A9F780
:101F3000EACFB4E0A6959795879577956795BA957A
:101F4000C9F700976105710508959B01AC010A2E40
:101F500006945795479537952795BA95C9F7620F17
:101F6000731F841F951FA01D0895E89409C097FB57
:101F70003EF490958095709561957F4F8F4F9F4F60
:101F80009923A9F0F92F96E9BB279395F6958795A4
:101F900077956795B795F111F8CFFAF4BB0F11F467
:101FA00060FF1BC06F5F7F4F8F4F9F4F16C088230E
:101FB00011F096E911C0772321F09EE8872F762F44
:101FC00005C0662371F096E8862F70E060E02AF085
:101FD0009A95660F771F881FDAF7880F9695879571
:101FE00097F90895990F0008550FAA0BE0E8FEEF46
:101FF00016161706E807F907C0F012161306E407CD
:10200000F50798F0621B730B840B950B39F40A26C5
:1020100061F0232B242B252B21F408950A2609F4A3
:10202000A140A6958FEF811D811D089597F99F67A7
:1020300080E870E060E008959FEF80EC0895002450
:102040000A941616170618060906089500240A941D
:1020500012161306140605060895092E0394000CA3
:1020600011F4882352F0BB0F40F4BF2B11F460FF32
:1020700004C06F5F7F4F8F4F9F4F089557FD90585B
:10208000440F551F59F05F3F71F04795880F97FB3C
:10209000991F61F09F3F79F08795089512161306F6
:1020A0001406551FF2CF4695F1DF08C01616170625
:1020B0001806991FF1CF869571056105089408955A
:1020C000E894BB2766277727CB0197F908952F92CD
:1020D0003F924F925F926F927F928F929F92AF92B8
:1020E000BF92CF92DF92EF92FF920F931F93CF9305
:1020F000DF93CDB7DEB7CA1BDB0B0FB6F894DEBF9C
:102100000FBECDBF09942A88398848885F846E84C1
:102110007D848C849B84AA84B984C884DF80EE800B
:10212000FD800C811B81AA81B981CE0FD11D0FB614
:10213000F894DEBF0FBECDBFED0108955058BB2708
:10214000AA270E94B6100C942D100E941F1038F080
:102150000E94261020F039F49F3F19F426F40C94C5
:102160001C100EF4E095E7FB0C941610E92F0E946A
:102170003E1058F3BA17620773078407950720F0DB
:1021800079F4A6F50C9460100EF4E0950B2EBA2F9E
:10219000A02D0B01B90190010C01CA01A00111246D
:1021A000FF27591B99F0593F50F4503E68F11A1619
:1021B000F040A22F232F342F4427585FF3CF4695AA
:1021C00037952795A795F0405395C9F77EF41F16CC
:1021D000BA0B620B730B840BBAF09150A1F0FF0F96
:1021E000BB1F661F771F881FC2F70EC0BA0F621F82
:1021F000731F841F48F4879577956795B795F79572
:102200009E3F08F0B0CF9395880F08F09927EE0F06
:102210009795879508950E941F110C942D100E9488
:10222000261058F00E941F1040F029F45F3F29F05B
:102230000C94161051110C9461100C941C100E94F7
:102240003E1068F39923B1F3552391F3951B550B79
:10225000BB27AA2762177307840738F09F5F5F4F79
:10226000220F331F441FAA1FA9F335D00E2E3AF0B8
:10227000E0E832D091505040E695001CCAF72BD0D0
:10228000FE2F29D0660F771F881FBB1F2617370721
:102290004807AB07B0E809F0BB0B802DBF01FF2753
:1022A00093585F4F3AF09E3F510578F00C9416100A
:1022B0000C9461105F3FE4F3983ED4F386957795D4
:1022C0006795B795F7959F5FC9F7880F911D96950C
:1022D000879597F90895E1E0660F771F881FBB1F68
:1022E000621773078407BA0720F0621B730B840B15
:1022F000BA0BEE1F88F7E09508950E948411689448
:10230000B1110C94611008950E94461088F09F57F7
:1023100098F0B92F9927B751B0F0E1F0660F771F09
:10232000881F991F1AF0BA95C9F714C0B13091F0FF
:102330000E946010B1E008950C946010672F782F10
:102340008827B85F39F0B93FCCF3869577956795C4
:10235000B395D9F73EF490958095709561957F4F30
:102360008F4F9F4F08950E94F20F08F48FEF08954A
:1023700097FB072E16F4009407D077FD09D00E9432
:10238000CC1107FC05D03EF4909581959F4F0895A0
:10239000709561957F4F0895AA1BBB1B51E107C043
:1023A000AA1FBB1FA617B70710F0A61BB70B881FE5
:1023B000991F5A95A9F780959095BC01CD01089574
:1023C000EE0FFF1F0590F491E02D099481E090E05D
:1023D000F8940C940E12AEE0B0E0E1EFF1E10C9451
:1023E00075100D891E8986E08C831A8309838FEF0F
:1023F0009FE79E838D83AE01475E5F4F6F89788D27
:10240000CE0101960E94E70B2F813885F801E20F7B
:10241000F31F10822E96E4E00C949110F894FFCFF5
:1024200000008F02800000000000C00180055801FC
:102430000702890167017B01564D4450565F317C8C
:10244000315F564D4450560D0A0074627264002587
:10245000732F253032643B256400436F726520740E
:10246000656D70657261747572652073656E640068
:10247000687967730056616C7565206F66207365B7
:0A2480006E736F722073656E6400C6
:107800000C94343C0C94513C0C94513C0C94513CE1
:107810000C94513C0C94513C0C94513C0C94513CB4
:107820000C94513C0C94513C0C94513C0C94513CA4
:107830000C94513C0C94513C0C94513C0C94513C94
:107840000C94513C0C94513C0C94513C0C94513C84
:107850000C94513C0C94513C0C94513C0C94513C74
:107860000C94513C0C94513C11241FBECFEFD8E036
:10787000DEBFCDBF11E0A0E0B1E0ECE9FFE702C060
:1078800005900D92A230B107D9F712E0A2E0B1E065
:1078900001C01D92AD30B107E1F70E942D3D0C945F
:1078A000CC3F0C94003C982F959595959595959582
:1078B000905D8F708A307CF0282F295A8091C0000B
:1078C00085FFFCCF9093C6008091C00085FFFCCF60
:1078D0002093C6000895282F205DF0CF982F809127
:1078E000C00085FFFCCF9093C6000895EF92FF92F1
:1078F0000F931F93EE24FF2487018091C00087FD22
:1079000017C00894E11CF11C011D111D81E4E8164B
:1079100082E4F8068FE0080780E0180770F3E09132
:107920000401F091050109958091C00087FFE9CF1E
:107930008091C6001F910F91FF90EF9008950E94D3
:10794000763C982F8091C00085FFFCCF9093C600B5
:1079500091362CF490330CF09053892F089597555D
:10796000892F08951F930E949F3C182F0E949F3CCF
:107970001295107F810F1F9108951F93182F882350
:1079800021F00E94763C1150E1F71F9108951F935A
:10799000182F0E94763C803249F0809103018F5F5E
:1079A000809303018530C1F01F9108958091C0003C
:1079B00085FFFCCF84E18093C6008091C00085FFE5
:1079C000FCCF1093C6008091C00085FFFCCF80E102
:1079D0008093C6001F910895E0910401F091050184
:1079E00009951F9108950E94763C803241F0809164
:1079F00003018F5F80930301853081F008958091AA
:107A0000C00085FFFCCF84E18093C6008091C00058
:107A100085FFFCCF80E18093C6000895E0910401CA
:107A2000F09105010995089540E951E08823A1F0FE
:107A30002D9A28EE33E0FA013197F1F721503040CA
:107A4000D1F72D9828EE33E0FA013197F1F7215064
:107A50003040D1F7815061F708953F924F925F9285
:107A60006F927F928F929F92AF92BF92CF92DF924E
:107A7000EF92FF920F931F93CF93DF93000080E16B
:107A80008093C4001092C50088E18093C10086E015
:107A90008093C2005098589A259A81E00E94143D24
:107AA00024E1F22E9EE1E92E85E9D82E0FE0C02ECA
:107AB00010E1B12EAA24A394B1E49B2EA6E58A2E50
:107AC000F2E57F2EE0E26E2E79E4572E63E5462E36
:107AD00050E5352E0E94763C8033B1F18133B9F107
:107AE000803409F46FC0813409F476C0823409F41B
:107AF00085C0853409F488C0803531F1823521F1A3
:107B0000813511F1853509F485C0863509F48DC0BC
:107B1000843609F496C0843709F403C1853709F423
:107B200072C1863709F466C0809103018F5F80932C
:107B30000301853079F6E0910401F0910501099582
:107B40000E94763C803351F60E94F33CC3CF0E94E2
:107B5000763C803249F78091C00085FFFCCFF092DF
:107B6000C6008091C00085FFFCCF9092C600809136
:107B7000C00085FFFCCF8092C6008091C00085FFC9
:107B8000FCCF7092C6008091C00085FFFCCF609250
:107B9000C6008091C00085FFFCCF5092C600809146
:107BA000C00085FFFCCF4092C6008091C00085FFD9
:107BB000FCCF3092C6008091C00085FFFCCFB09210
:107BC000C60088CF0E94763C863808F4BDCF0E945C
:107BD000763C0E94F33C7ECF0E94763C803809F4CC
:107BE0009CC0813809F40BC1823809F43CC1883942
:107BF00009F48FC080E00E94C73C6CCF84E10E94F2
:107C0000BD3C0E94F33C66CF85E00E94BD3C0E94D3
:107C1000F33C60CF0E94763C809306010E94763C44
:107C2000809307010E94F33C55CF0E94763C80333D
:107C300009F41DC183E00E94BD3C80E00E94C73C66
:107C400049CF0E94763C809309020E94763C809343
:107C5000080280910C028E7F80930C020E94763C79
:107C6000853409F415C18091080290910902892B8D
:107C700089F000E010E00E94763CF801E85FFE4FDA
:107C800080830F5F1F4F80910802909109020817AF
:107C9000190788F30E94763C803209F045CF809125
:107CA0000C0280FF01C16091060170910701660F0F
:107CB000771F7093070160930601A0910802B091AD
:107CC00009021097C9F0E8E0F1E09B01AD014E0F09
:107CD0005F1FF999FECF32BD21BD819180BDFA9A17
:107CE000F99A2F5F3F4FE417F50799F76A0F7B1F4B
:107CF00070930701609306018091C00085FFFCCF5F
:107D0000F092C6008091C00085FFFCCFB092C60003
:107D1000E1CE83E00E94C73CDDCE82E00E94C73CFA
:107D2000D9CE0E94763C809309020E94763C8093D3
:107D300008028091060190910701880F991F909386
:107D40000701809306010E94763C853409F4A6C0A1
:107D500080910C028E7F80930C020E94763C8032D0
:107D600009F0B8CE8091C00085FFFCCFF092C6002C
:107D7000609108027091090261157105B9F140E046
:107D800050E080910C02A82FA170B82FB27011C0E2
:107D9000BB2309F45CC0E0910601F0910701319624
:107DA000F0930701E09306014F5F5F4F46175707B7
:107DB000E8F4AA2369F3F999FECF209106013091E6
:107DC000070132BD21BDF89A90B58091C00085FFB2
:107DD000FCCF9093C6002F5F3F4F30930701209355
:107DE00006014F5F5F4F4617570718F38091C00099
:107DF00085FDE5CE8091C00085FFF8CFE0CE81E023
:107E00000E94C73C67CE0E94763C803209F08CCE3F
:107E10008091C00085FFFCCFF092C6008091C00029
:107E200085FFFCCFE092C6008091C00085FFFCCFAB
:107E3000D092C6008091C00085FFFCCFC092C600E2
:107E40008091C00085FFFCCFB092C60043CEE09188
:107E50000601F091070194918091C00085FFFCCF4D
:107E60009093C6009CCF80E10E94C73C33CE0E9415
:107E7000763C0E94763C182F0E94763C112309F430
:107E800083C0113009F484C08FE00E94C73C22CE29
:107E900080910C02816080930C02E5CE80910C02EF
:107EA000816080930C0259CF809107018823880F4D
:107EB000880B8A2180930B02809106019091070123
:107EC000880F991F90930701809306018091080203
:107ED00080FF09C080910802909109020196909359
:107EE000090280930802F894F999FECF1127E091D6
:107EF0000601F0910701C8E0D1E08091080290915D
:107F00000902103091F40091570001700130D9F34B
:107F100003E000935700E89500915700017001308D
:107F2000D9F301E100935700E89509901990009169
:107F3000570001700130D9F301E000935700E89534
:107F40001395103498F011270091570001700130FB
:107F5000D9F305E000935700E895009157000170B0
:107F60000130D9F301E100935700E895329602976A
:107F700009F0C7CF103011F00296E5CF112480919F
:107F8000C00085FFB9CEBCCE8EE10E94C73CA2CD19
:0C7F900085E90E94C73C9ECDF894FFCF0D
:027F9C00800063
:040000030000780081
:00000001FF